{
	"contracts/src/Voting.sol": {
		"Voting": {
			"abi": [
				{
					"inputs": [
						{
							"internalType": "string[]",
							"name": "candidateName",
							"type": "string[]"
						}
					],
					"stateMutability": "nonpayable",
					"type": "constructor"
				},
				{
					"inputs": [
						{
							"internalType": "uint256",
							"name": "",
							"type": "uint256"
						}
					],
					"name": "candidateList",
					"outputs": [
						{
							"internalType": "string",
							"name": "",
							"type": "string"
						}
					],
					"stateMutability": "view",
					"type": "function"
				},
				{
					"inputs": [
						{
							"internalType": "string",
							"name": "candidate",
							"type": "string"
						}
					],
					"name": "totalVotesFor",
					"outputs": [
						{
							"internalType": "uint256",
							"name": "",
							"type": "uint256"
						}
					],
					"stateMutability": "view",
					"type": "function"
				},
				{
					"inputs": [
						{
							"internalType": "string",
							"name": "candidate",
							"type": "string"
						}
					],
					"name": "validCandidate",
					"outputs": [
						{
							"internalType": "bool",
							"name": "",
							"type": "bool"
						}
					],
					"stateMutability": "view",
					"type": "function"
				},
				{
					"inputs": [
						{
							"internalType": "string",
							"name": "candidate",
							"type": "string"
						}
					],
					"name": "voteForCandidate",
					"outputs": [],
					"stateMutability": "nonpayable",
					"type": "function"
				},
				{
					"inputs": [
						{
							"internalType": "string",
							"name": "",
							"type": "string"
						}
					],
					"name": "votesReceived",
					"outputs": [
						{
							"internalType": "uint256",
							"name": "",
							"type": "uint256"
						}
					],
					"stateMutability": "view",
					"type": "function"
				}
			],
			"devdoc": {
				"kind": "dev",
				"methods": {},
				"version": 1
			},
			"evm": {
				"assembly": "    /* \"contracts/src/Voting.sol\":67:968  contract Voting {... */\n  mstore(0x40, 0x80)\n    /* \"contracts/src/Voting.sol\":191:282  constructor(string[] memory candidateName) {... */\n  callvalue\n  dup1\n  iszero\n  tag_1\n  jumpi\n  0x00\n  dup1\n  revert\ntag_1:\n  pop\n  mload(0x40)\n  sub(codesize, bytecodeSize)\n  dup1\n  bytecodeSize\n  dup4\n  codecopy\n  dup2\n  dup2\n  add\n  0x40\n  mstore\n  dup2\n  add\n  swap1\n  tag_2\n  swap2\n  swap1\n  tag_3\n  jump\t// in\ntag_2:\n    /* \"contracts/src/Voting.sol\":261:274  candidateName */\n  dup1\n    /* \"contracts/src/Voting.sol\":245:258  candidateList */\n  0x01\n    /* \"contracts/src/Voting.sol\":245:274  candidateList = candidateName */\n  swap1\n  dup1\n  mload\n  swap1\n  0x20\n  add\n  swap1\n  tag_6\n  swap3\n  swap2\n  swap1\n  tag_7\n  jump\t// in\ntag_6:\n  pop\n    /* \"contracts/src/Voting.sol\":191:282  constructor(string[] memory candidateName) {... */\n  pop\n    /* \"contracts/src/Voting.sol\":67:968  contract Voting {... */\n  jump(tag_8)\ntag_7:\n  dup3\n  dup1\n  sload\n  dup3\n  dup3\n  sstore\n  swap1\n  0x00\n  mstore\n  keccak256(0x00, 0x20)\n  swap1\n  dup2\n  add\n  swap3\n  dup3\n  iszero\n  tag_9\n  jumpi\n  swap2\n  0x20\n  mul\n  dup3\n  add\ntag_10:\n  dup3\n  dup2\n  gt\n  iszero\n  tag_11\n  jumpi\n  dup3\n  mload\n  dup3\n  swap1\n  dup2\n  tag_12\n  swap2\n  swap1\n  tag_13\n  jump\t// in\ntag_12:\n  pop\n  swap2\n  0x20\n  add\n  swap2\n  swap1\n  0x01\n  add\n  swap1\n  jump(tag_10)\ntag_11:\ntag_9:\n  pop\n  swap1\n  pop\n  tag_14\n  swap2\n  swap1\n  tag_15\n  jump\t// in\ntag_14:\n  pop\n  swap1\n  jump\t// out\ntag_15:\ntag_16:\n  dup1\n  dup3\n  gt\n  iszero\n  tag_17\n  jumpi\n  0x00\n  dup2\n  dup2\n  tag_18\n  swap2\n  swap1\n  tag_19\n  jump\t// in\ntag_18:\n  pop\n  0x01\n  add\n  jump(tag_16)\ntag_17:\n  pop\n  swap1\n  jump\t// out\ntag_19:\n  pop\n  dup1\n  sload\n  tag_20\n  swap1\n  tag_21\n  jump\t// in\ntag_20:\n  0x00\n  dup3\n  sstore\n  dup1\n  0x1f\n  lt\n  tag_23\n  jumpi\n  pop\n  jump(tag_22)\ntag_23:\n  0x1f\n  add\n  0x20\n  swap1\n  div\n  swap1\n  0x00\n  mstore\n  keccak256(0x00, 0x20)\n  swap1\n  dup2\n  add\n  swap1\n  tag_24\n  swap2\n  swap1\n  tag_25\n  jump\t// in\ntag_24:\ntag_22:\n  pop\n  jump\t// out\ntag_25:\ntag_26:\n  dup1\n  dup3\n  gt\n  iszero\n  tag_27\n  jumpi\n  0x00\n  dup2\n  0x00\n  swap1\n  sstore\n  pop\n  0x01\n  add\n  jump(tag_26)\ntag_27:\n  pop\n  swap1\n  jump\t// out\n    /* \"#utility.yul\":7:82   */\ntag_28:\n    /* \"#utility.yul\":40:46   */\n  0x00\n    /* \"#utility.yul\":73:75   */\n  0x40\n    /* \"#utility.yul\":67:76   */\n  mload\n    /* \"#utility.yul\":57:76   */\n  swap1\n  pop\n    /* \"#utility.yul\":7:82   */\n  swap1\n  jump\t// out\n    /* \"#utility.yul\":88:205   */\ntag_29:\n    /* \"#utility.yul\":197:198   */\n  0x00\n    /* \"#utility.yul\":194:195   */\n  dup1\n    /* \"#utility.yul\":187:199   */\n  revert\n    /* \"#utility.yul\":211:328   */\ntag_30:\n    /* \"#utility.yul\":320:321   */\n  0x00\n    /* \"#utility.yul\":317:318   */\n  dup1\n    /* \"#utility.yul\":310:322   */\n  revert\n    /* \"#utility.yul\":334:451   */\ntag_31:\n    /* \"#utility.yul\":443:444   */\n  0x00\n    /* \"#utility.yul\":440:441   */\n  dup1\n    /* \"#utility.yul\":433:445   */\n  revert\n    /* \"#utility.yul\":457:559   */\ntag_32:\n    /* \"#utility.yul\":498:504   */\n  0x00\n    /* \"#utility.yul\":549:551   */\n  0x1f\n    /* \"#utility.yul\":545:552   */\n  not\n    /* \"#utility.yul\":540:542   */\n  0x1f\n    /* \"#utility.yul\":533:538   */\n  dup4\n    /* \"#utility.yul\":529:543   */\n  add\n    /* \"#utility.yul\":525:553   */\n  and\n    /* \"#utility.yul\":515:553   */\n  swap1\n  pop\n    /* \"#utility.yul\":457:559   */\n  swap2\n  swap1\n  pop\n  jump\t// out\n    /* \"#utility.yul\":565:745   */\ntag_33:\n    /* \"#utility.yul\":613:690   */\n  0x4e487b7100000000000000000000000000000000000000000000000000000000\n    /* \"#utility.yul\":610:611   */\n  0x00\n    /* \"#utility.yul\":603:691   */\n  mstore\n    /* \"#utility.yul\":710:714   */\n  0x41\n    /* \"#utility.yul\":707:708   */\n  0x04\n    /* \"#utility.yul\":700:715   */\n  mstore\n    /* \"#utility.yul\":734:738   */\n  0x24\n    /* \"#utility.yul\":731:732   */\n  0x00\n    /* \"#utility.yul\":724:739   */\n  revert\n    /* \"#utility.yul\":751:1032   */\ntag_34:\n    /* \"#utility.yul\":834:861   */\n  tag_71\n    /* \"#utility.yul\":856:860   */\n  dup3\n    /* \"#utility.yul\":834:861   */\n  tag_32\n  jump\t// in\ntag_71:\n    /* \"#utility.yul\":826:832   */\n  dup2\n    /* \"#utility.yul\":822:862   */\n  add\n    /* \"#utility.yul\":964:970   */\n  dup2\n    /* \"#utility.yul\":952:962   */\n  dup2\n    /* \"#utility.yul\":949:971   */\n  lt\n    /* \"#utility.yul\":928:946   */\n  0xffffffffffffffff\n    /* \"#utility.yul\":916:926   */\n  dup3\n    /* \"#utility.yul\":913:947   */\n  gt\n    /* \"#utility.yul\":910:972   */\n  or\n    /* \"#utility.yul\":907:995   */\n  iszero\n  tag_72\n  jumpi\n    /* \"#utility.yul\":975:993   */\n  tag_73\n  tag_33\n  jump\t// in\ntag_73:\n    /* \"#utility.yul\":907:995   */\ntag_72:\n    /* \"#utility.yul\":1015:1025   */\n  dup1\n    /* \"#utility.yul\":1011:1013   */\n  0x40\n    /* \"#utility.yul\":1004:1026   */\n  mstore\n    /* \"#utility.yul\":794:1032   */\n  pop\n    /* \"#utility.yul\":751:1032   */\n  pop\n  pop\n  jump\t// out\n    /* \"#utility.yul\":1038:1167   */\ntag_35:\n    /* \"#utility.yul\":1072:1078   */\n  0x00\n    /* \"#utility.yul\":1099:1119   */\n  tag_75\n  tag_28\n  jump\t// in\ntag_75:\n    /* \"#utility.yul\":1089:1119   */\n  swap1\n  pop\n    /* \"#utility.yul\":1128:1161   */\n  tag_76\n    /* \"#utility.yul\":1156:1160   */\n  dup3\n    /* \"#utility.yul\":1148:1154   */\n  dup3\n    /* \"#utility.yul\":1128:1161   */\n  tag_34\n  jump\t// in\ntag_76:\n    /* \"#utility.yul\":1038:1167   */\n  swap2\n  swap1\n  pop\n  jump\t// out\n    /* \"#utility.yul\":1173:1494   */\ntag_36:\n    /* \"#utility.yul\":1260:1264   */\n  0x00\n    /* \"#utility.yul\":1350:1368   */\n  0xffffffffffffffff\n    /* \"#utility.yul\":1342:1348   */\n  dup3\n    /* \"#utility.yul\":1339:1369   */\n  gt\n    /* \"#utility.yul\":1336:1392   */\n  iszero\n  tag_78\n  jumpi\n    /* \"#utility.yul\":1372:1390   */\n  tag_79\n  tag_33\n  jump\t// in\ntag_79:\n    /* \"#utility.yul\":1336:1392   */\ntag_78:\n    /* \"#utility.yul\":1422:1426   */\n  0x20\n    /* \"#utility.yul\":1414:1420   */\n  dup3\n    /* \"#utility.yul\":1410:1427   */\n  mul\n    /* \"#utility.yul\":1402:1427   */\n  swap1\n  pop\n    /* \"#utility.yul\":1482:1486   */\n  0x20\n    /* \"#utility.yul\":1476:1480   */\n  dup2\n    /* \"#utility.yul\":1472:1487   */\n  add\n    /* \"#utility.yul\":1464:1487   */\n  swap1\n  pop\n    /* \"#utility.yul\":1173:1494   */\n  swap2\n  swap1\n  pop\n  jump\t// out\n    /* \"#utility.yul\":1500:1617   */\ntag_37:\n    /* \"#utility.yul\":1609:1610   */\n  0x00\n    /* \"#utility.yul\":1606:1607   */\n  dup1\n    /* \"#utility.yul\":1599:1611   */\n  revert\n    /* \"#utility.yul\":1623:1740   */\ntag_38:\n    /* \"#utility.yul\":1732:1733   */\n  0x00\n    /* \"#utility.yul\":1729:1730   */\n  dup1\n    /* \"#utility.yul\":1722:1734   */\n  revert\n    /* \"#utility.yul\":1746:2054   */\ntag_39:\n    /* \"#utility.yul\":1808:1812   */\n  0x00\n    /* \"#utility.yul\":1898:1916   */\n  0xffffffffffffffff\n    /* \"#utility.yul\":1890:1896   */\n  dup3\n    /* \"#utility.yul\":1887:1917   */\n  gt\n    /* \"#utility.yul\":1884:1940   */\n  iszero\n  tag_83\n  jumpi\n    /* \"#utility.yul\":1920:1938   */\n  tag_84\n  tag_33\n  jump\t// in\ntag_84:\n    /* \"#utility.yul\":1884:1940   */\ntag_83:\n    /* \"#utility.yul\":1958:1987   */\n  tag_85\n    /* \"#utility.yul\":1980:1986   */\n  dup3\n    /* \"#utility.yul\":1958:1987   */\n  tag_32\n  jump\t// in\ntag_85:\n    /* \"#utility.yul\":1950:1987   */\n  swap1\n  pop\n    /* \"#utility.yul\":2042:2046   */\n  0x20\n    /* \"#utility.yul\":2036:2040   */\n  dup2\n    /* \"#utility.yul\":2032:2047   */\n  add\n    /* \"#utility.yul\":2024:2047   */\n  swap1\n  pop\n    /* \"#utility.yul\":1746:2054   */\n  swap2\n  swap1\n  pop\n  jump\t// out\n    /* \"#utility.yul\":2060:2306   */\ntag_40:\n    /* \"#utility.yul\":2141:2142   */\n  0x00\n    /* \"#utility.yul\":2151:2264   */\ntag_87:\n    /* \"#utility.yul\":2165:2171   */\n  dup4\n    /* \"#utility.yul\":2162:2163   */\n  dup2\n    /* \"#utility.yul\":2159:2172   */\n  lt\n    /* \"#utility.yul\":2151:2264   */\n  iszero\n  tag_89\n  jumpi\n    /* \"#utility.yul\":2250:2251   */\n  dup1\n    /* \"#utility.yul\":2245:2248   */\n  dup3\n    /* \"#utility.yul\":2241:2252   */\n  add\n    /* \"#utility.yul\":2235:2253   */\n  mload\n    /* \"#utility.yul\":2231:2232   */\n  dup2\n    /* \"#utility.yul\":2226:2229   */\n  dup5\n    /* \"#utility.yul\":2222:2233   */\n  add\n    /* \"#utility.yul\":2215:2254   */\n  mstore\n    /* \"#utility.yul\":2187:2189   */\n  0x20\n    /* \"#utility.yul\":2184:2185   */\n  dup2\n    /* \"#utility.yul\":2180:2190   */\n  add\n    /* \"#utility.yul\":2175:2190   */\n  swap1\n  pop\n    /* \"#utility.yul\":2151:2264   */\n  jump(tag_87)\ntag_89:\n    /* \"#utility.yul\":2298:2299   */\n  0x00\n    /* \"#utility.yul\":2289:2295   */\n  dup5\n    /* \"#utility.yul\":2284:2287   */\n  dup5\n    /* \"#utility.yul\":2280:2296   */\n  add\n    /* \"#utility.yul\":2273:2300   */\n  mstore\n    /* \"#utility.yul\":2122:2306   */\n  pop\n    /* \"#utility.yul\":2060:2306   */\n  pop\n  pop\n  pop\n  jump\t// out\n    /* \"#utility.yul\":2312:2746   */\ntag_41:\n    /* \"#utility.yul\":2401:2406   */\n  0x00\n    /* \"#utility.yul\":2426:2492   */\n  tag_91\n    /* \"#utility.yul\":2442:2491   */\n  tag_92\n    /* \"#utility.yul\":2484:2490   */\n  dup5\n    /* \"#utility.yul\":2442:2491   */\n  tag_39\n  jump\t// in\ntag_92:\n    /* \"#utility.yul\":2426:2492   */\n  tag_35\n  jump\t// in\ntag_91:\n    /* \"#utility.yul\":2417:2492   */\n  swap1\n  pop\n    /* \"#utility.yul\":2515:2521   */\n  dup3\n    /* \"#utility.yul\":2508:2513   */\n  dup2\n    /* \"#utility.yul\":2501:2522   */\n  mstore\n    /* \"#utility.yul\":2553:2557   */\n  0x20\n    /* \"#utility.yul\":2546:2551   */\n  dup2\n    /* \"#utility.yul\":2542:2558   */\n  add\n    /* \"#utility.yul\":2591:2594   */\n  dup5\n    /* \"#utility.yul\":2582:2588   */\n  dup5\n    /* \"#utility.yul\":2577:2580   */\n  dup5\n    /* \"#utility.yul\":2573:2589   */\n  add\n    /* \"#utility.yul\":2570:2595   */\n  gt\n    /* \"#utility.yul\":2567:2679   */\n  iszero\n  tag_93\n  jumpi\n    /* \"#utility.yul\":2598:2677   */\n  tag_94\n  tag_38\n  jump\t// in\ntag_94:\n    /* \"#utility.yul\":2567:2679   */\ntag_93:\n    /* \"#utility.yul\":2688:2740   */\n  tag_95\n    /* \"#utility.yul\":2733:2739   */\n  dup5\n    /* \"#utility.yul\":2728:2731   */\n  dup3\n    /* \"#utility.yul\":2723:2726   */\n  dup6\n    /* \"#utility.yul\":2688:2740   */\n  tag_40\n  jump\t// in\ntag_95:\n    /* \"#utility.yul\":2407:2746   */\n  pop\n    /* \"#utility.yul\":2312:2746   */\n  swap4\n  swap3\n  pop\n  pop\n  pop\n  jump\t// out\n    /* \"#utility.yul\":2766:3121   */\ntag_42:\n    /* \"#utility.yul\":2833:2838   */\n  0x00\n    /* \"#utility.yul\":2882:2885   */\n  dup3\n    /* \"#utility.yul\":2875:2879   */\n  0x1f\n    /* \"#utility.yul\":2867:2873   */\n  dup4\n    /* \"#utility.yul\":2863:2880   */\n  add\n    /* \"#utility.yul\":2859:2886   */\n  slt\n    /* \"#utility.yul\":2849:2971   */\n  tag_97\n  jumpi\n    /* \"#utility.yul\":2890:2969   */\n  tag_98\n  tag_31\n  jump\t// in\ntag_98:\n    /* \"#utility.yul\":2849:2971   */\ntag_97:\n    /* \"#utility.yul\":3000:3006   */\n  dup2\n    /* \"#utility.yul\":2994:3007   */\n  mload\n    /* \"#utility.yul\":3025:3115   */\n  tag_99\n    /* \"#utility.yul\":3111:3114   */\n  dup5\n    /* \"#utility.yul\":3103:3109   */\n  dup3\n    /* \"#utility.yul\":3096:3100   */\n  0x20\n    /* \"#utility.yul\":3088:3094   */\n  dup7\n    /* \"#utility.yul\":3084:3101   */\n  add\n    /* \"#utility.yul\":3025:3115   */\n  tag_41\n  jump\t// in\ntag_99:\n    /* \"#utility.yul\":3016:3115   */\n  swap2\n  pop\n    /* \"#utility.yul\":2839:3121   */\n  pop\n    /* \"#utility.yul\":2766:3121   */\n  swap3\n  swap2\n  pop\n  pop\n  jump\t// out\n    /* \"#utility.yul\":3143:4103   */\ntag_43:\n    /* \"#utility.yul\":3260:3265   */\n  0x00\n    /* \"#utility.yul\":3285:3376   */\n  tag_101\n    /* \"#utility.yul\":3301:3375   */\n  tag_102\n    /* \"#utility.yul\":3368:3374   */\n  dup5\n    /* \"#utility.yul\":3301:3375   */\n  tag_36\n  jump\t// in\ntag_102:\n    /* \"#utility.yul\":3285:3376   */\n  tag_35\n  jump\t// in\ntag_101:\n    /* \"#utility.yul\":3276:3376   */\n  swap1\n  pop\n    /* \"#utility.yul\":3396:3401   */\n  dup1\n    /* \"#utility.yul\":3425:3431   */\n  dup4\n    /* \"#utility.yul\":3418:3423   */\n  dup3\n    /* \"#utility.yul\":3411:3432   */\n  mstore\n    /* \"#utility.yul\":3459:3463   */\n  0x20\n    /* \"#utility.yul\":3452:3457   */\n  dup3\n    /* \"#utility.yul\":3448:3464   */\n  add\n    /* \"#utility.yul\":3441:3464   */\n  swap1\n  pop\n    /* \"#utility.yul\":3512:3516   */\n  0x20\n    /* \"#utility.yul\":3504:3510   */\n  dup5\n    /* \"#utility.yul\":3500:3517   */\n  mul\n    /* \"#utility.yul\":3492:3498   */\n  dup4\n    /* \"#utility.yul\":3488:3518   */\n  add\n    /* \"#utility.yul\":3541:3544   */\n  dup6\n    /* \"#utility.yul\":3533:3539   */\n  dup2\n    /* \"#utility.yul\":3530:3545   */\n  gt\n    /* \"#utility.yul\":3527:3649   */\n  iszero\n  tag_103\n  jumpi\n    /* \"#utility.yul\":3560:3639   */\n  tag_104\n  tag_37\n  jump\t// in\ntag_104:\n    /* \"#utility.yul\":3527:3649   */\ntag_103:\n    /* \"#utility.yul\":3675:3681   */\n  dup4\n    /* \"#utility.yul\":3658:4097   */\ntag_105:\n    /* \"#utility.yul\":3692:3698   */\n  dup2\n    /* \"#utility.yul\":3687:3690   */\n  dup2\n    /* \"#utility.yul\":3684:3699   */\n  lt\n    /* \"#utility.yul\":3658:4097   */\n  iszero\n  tag_107\n  jumpi\n    /* \"#utility.yul\":3774:3777   */\n  dup1\n    /* \"#utility.yul\":3768:3778   */\n  mload\n    /* \"#utility.yul\":3810:3828   */\n  0xffffffffffffffff\n    /* \"#utility.yul\":3797:3808   */\n  dup2\n    /* \"#utility.yul\":3794:3829   */\n  gt\n    /* \"#utility.yul\":3791:3913   */\n  iszero\n  tag_108\n  jumpi\n    /* \"#utility.yul\":3832:3911   */\n  tag_109\n  tag_31\n  jump\t// in\ntag_109:\n    /* \"#utility.yul\":3791:3913   */\ntag_108:\n    /* \"#utility.yul\":3956:3967   */\n  dup1\n    /* \"#utility.yul\":3948:3954   */\n  dup7\n    /* \"#utility.yul\":3944:3968   */\n  add\n    /* \"#utility.yul\":3994:4052   */\n  tag_110\n    /* \"#utility.yul\":4048:4051   */\n  dup10\n    /* \"#utility.yul\":4036:4046   */\n  dup3\n    /* \"#utility.yul\":3994:4052   */\n  tag_42\n  jump\t// in\ntag_110:\n    /* \"#utility.yul\":3989:3992   */\n  dup6\n    /* \"#utility.yul\":3982:4053   */\n  mstore\n    /* \"#utility.yul\":4082:4086   */\n  0x20\n    /* \"#utility.yul\":4077:4080   */\n  dup6\n    /* \"#utility.yul\":4073:4087   */\n  add\n    /* \"#utility.yul\":4066:4087   */\n  swap5\n  pop\n    /* \"#utility.yul\":3734:4097   */\n  pop\n  pop\n    /* \"#utility.yul\":3718:3722   */\n  0x20\n    /* \"#utility.yul\":3713:3716   */\n  dup2\n    /* \"#utility.yul\":3709:3723   */\n  add\n    /* \"#utility.yul\":3702:3723   */\n  swap1\n  pop\n    /* \"#utility.yul\":3658:4097   */\n  jump(tag_105)\ntag_107:\n    /* \"#utility.yul\":3662:3683   */\n  pop\n    /* \"#utility.yul\":3266:4103   */\n  pop\n  pop\n    /* \"#utility.yul\":3143:4103   */\n  swap4\n  swap3\n  pop\n  pop\n  pop\n  jump\t// out\n    /* \"#utility.yul\":4125:4530   */\ntag_44:\n    /* \"#utility.yul\":4217:4222   */\n  0x00\n    /* \"#utility.yul\":4266:4269   */\n  dup3\n    /* \"#utility.yul\":4259:4263   */\n  0x1f\n    /* \"#utility.yul\":4251:4257   */\n  dup4\n    /* \"#utility.yul\":4247:4264   */\n  add\n    /* \"#utility.yul\":4243:4270   */\n  slt\n    /* \"#utility.yul\":4233:4355   */\n  tag_112\n  jumpi\n    /* \"#utility.yul\":4274:4353   */\n  tag_113\n  tag_31\n  jump\t// in\ntag_113:\n    /* \"#utility.yul\":4233:4355   */\ntag_112:\n    /* \"#utility.yul\":4384:4390   */\n  dup2\n    /* \"#utility.yul\":4378:4391   */\n  mload\n    /* \"#utility.yul\":4409:4524   */\n  tag_114\n    /* \"#utility.yul\":4520:4523   */\n  dup5\n    /* \"#utility.yul\":4512:4518   */\n  dup3\n    /* \"#utility.yul\":4505:4509   */\n  0x20\n    /* \"#utility.yul\":4497:4503   */\n  dup7\n    /* \"#utility.yul\":4493:4510   */\n  add\n    /* \"#utility.yul\":4409:4524   */\n  tag_43\n  jump\t// in\ntag_114:\n    /* \"#utility.yul\":4400:4524   */\n  swap2\n  pop\n    /* \"#utility.yul\":4223:4530   */\n  pop\n    /* \"#utility.yul\":4125:4530   */\n  swap3\n  swap2\n  pop\n  pop\n  jump\t// out\n    /* \"#utility.yul\":4536:5110   */\ntag_3:\n    /* \"#utility.yul\":4641:4647   */\n  0x00\n    /* \"#utility.yul\":4690:4692   */\n  0x20\n    /* \"#utility.yul\":4678:4687   */\n  dup3\n    /* \"#utility.yul\":4669:4676   */\n  dup5\n    /* \"#utility.yul\":4665:4688   */\n  sub\n    /* \"#utility.yul\":4661:4693   */\n  slt\n    /* \"#utility.yul\":4658:4777   */\n  iszero\n  tag_116\n  jumpi\n    /* \"#utility.yul\":4696:4775   */\n  tag_117\n  tag_29\n  jump\t// in\ntag_117:\n    /* \"#utility.yul\":4658:4777   */\ntag_116:\n    /* \"#utility.yul\":4837:4838   */\n  0x00\n    /* \"#utility.yul\":4826:4835   */\n  dup3\n    /* \"#utility.yul\":4822:4839   */\n  add\n    /* \"#utility.yul\":4816:4840   */\n  mload\n    /* \"#utility.yul\":4867:4885   */\n  0xffffffffffffffff\n    /* \"#utility.yul\":4859:4865   */\n  dup2\n    /* \"#utility.yul\":4856:4886   */\n  gt\n    /* \"#utility.yul\":4853:4970   */\n  iszero\n  tag_118\n  jumpi\n    /* \"#utility.yul\":4889:4968   */\n  tag_119\n  tag_30\n  jump\t// in\ntag_119:\n    /* \"#utility.yul\":4853:4970   */\ntag_118:\n    /* \"#utility.yul\":4994:5093   */\n  tag_120\n    /* \"#utility.yul\":5085:5092   */\n  dup5\n    /* \"#utility.yul\":5076:5082   */\n  dup3\n    /* \"#utility.yul\":5065:5074   */\n  dup6\n    /* \"#utility.yul\":5061:5083   */\n  add\n    /* \"#utility.yul\":4994:5093   */\n  tag_44\n  jump\t// in\ntag_120:\n    /* \"#utility.yul\":4984:5093   */\n  swap2\n  pop\n    /* \"#utility.yul\":4787:5103   */\n  pop\n    /* \"#utility.yul\":4536:5110   */\n  swap3\n  swap2\n  pop\n  pop\n  jump\t// out\n    /* \"#utility.yul\":5116:5215   */\ntag_45:\n    /* \"#utility.yul\":5168:5174   */\n  0x00\n    /* \"#utility.yul\":5202:5207   */\n  dup2\n    /* \"#utility.yul\":5196:5208   */\n  mload\n    /* \"#utility.yul\":5186:5208   */\n  swap1\n  pop\n    /* \"#utility.yul\":5116:5215   */\n  swap2\n  swap1\n  pop\n  jump\t// out\n    /* \"#utility.yul\":5221:5401   */\ntag_46:\n    /* \"#utility.yul\":5269:5346   */\n  0x4e487b7100000000000000000000000000000000000000000000000000000000\n    /* \"#utility.yul\":5266:5267   */\n  0x00\n    /* \"#utility.yul\":5259:5347   */\n  mstore\n    /* \"#utility.yul\":5366:5370   */\n  0x22\n    /* \"#utility.yul\":5363:5364   */\n  0x04\n    /* \"#utility.yul\":5356:5371   */\n  mstore\n    /* \"#utility.yul\":5390:5394   */\n  0x24\n    /* \"#utility.yul\":5387:5388   */\n  0x00\n    /* \"#utility.yul\":5380:5395   */\n  revert\n    /* \"#utility.yul\":5407:5727   */\ntag_21:\n    /* \"#utility.yul\":5451:5457   */\n  0x00\n    /* \"#utility.yul\":5488:5489   */\n  0x02\n    /* \"#utility.yul\":5482:5486   */\n  dup3\n    /* \"#utility.yul\":5478:5490   */\n  div\n    /* \"#utility.yul\":5468:5490   */\n  swap1\n  pop\n    /* \"#utility.yul\":5535:5536   */\n  0x01\n    /* \"#utility.yul\":5529:5533   */\n  dup3\n    /* \"#utility.yul\":5525:5537   */\n  and\n    /* \"#utility.yul\":5556:5574   */\n  dup1\n    /* \"#utility.yul\":5546:5627   */\n  tag_124\n  jumpi\n    /* \"#utility.yul\":5612:5616   */\n  0x7f\n    /* \"#utility.yul\":5604:5610   */\n  dup3\n    /* \"#utility.yul\":5600:5617   */\n  and\n    /* \"#utility.yul\":5590:5617   */\n  swap2\n  pop\n    /* \"#utility.yul\":5546:5627   */\ntag_124:\n    /* \"#utility.yul\":5674:5676   */\n  0x20\n    /* \"#utility.yul\":5666:5672   */\n  dup3\n    /* \"#utility.yul\":5663:5677   */\n  lt\n    /* \"#utility.yul\":5643:5661   */\n  dup2\n    /* \"#utility.yul\":5640:5678   */\n  sub\n    /* \"#utility.yul\":5637:5721   */\n  tag_125\n  jumpi\n    /* \"#utility.yul\":5693:5711   */\n  tag_126\n  tag_46\n  jump\t// in\ntag_126:\n    /* \"#utility.yul\":5637:5721   */\ntag_125:\n    /* \"#utility.yul\":5458:5727   */\n  pop\n    /* \"#utility.yul\":5407:5727   */\n  swap2\n  swap1\n  pop\n  jump\t// out\n    /* \"#utility.yul\":5733:5874   */\ntag_47:\n    /* \"#utility.yul\":5782:5786   */\n  0x00\n    /* \"#utility.yul\":5805:5808   */\n  dup2\n    /* \"#utility.yul\":5797:5808   */\n  swap1\n  pop\n    /* \"#utility.yul\":5828:5831   */\n  dup2\n    /* \"#utility.yul\":5825:5826   */\n  0x00\n    /* \"#utility.yul\":5818:5832   */\n  mstore\n    /* \"#utility.yul\":5862:5866   */\n  0x20\n    /* \"#utility.yul\":5859:5860   */\n  0x00\n    /* \"#utility.yul\":5849:5867   */\n  keccak256\n    /* \"#utility.yul\":5841:5867   */\n  swap1\n  pop\n    /* \"#utility.yul\":5733:5874   */\n  swap2\n  swap1\n  pop\n  jump\t// out\n    /* \"#utility.yul\":5880:5973   */\ntag_48:\n    /* \"#utility.yul\":5917:5923   */\n  0x00\n    /* \"#utility.yul\":5964:5966   */\n  0x20\n    /* \"#utility.yul\":5959:5961   */\n  0x1f\n    /* \"#utility.yul\":5952:5957   */\n  dup4\n    /* \"#utility.yul\":5948:5962   */\n  add\n    /* \"#utility.yul\":5944:5967   */\n  div\n    /* \"#utility.yul\":5934:5967   */\n  swap1\n  pop\n    /* \"#utility.yul\":5880:5973   */\n  swap2\n  swap1\n  pop\n  jump\t// out\n    /* \"#utility.yul\":5979:6086   */\ntag_49:\n    /* \"#utility.yul\":6023:6031   */\n  0x00\n    /* \"#utility.yul\":6073:6078   */\n  dup3\n    /* \"#utility.yul\":6067:6071   */\n  dup3\n    /* \"#utility.yul\":6063:6079   */\n  shl\n    /* \"#utility.yul\":6042:6079   */\n  swap1\n  pop\n    /* \"#utility.yul\":5979:6086   */\n  swap3\n  swap2\n  pop\n  pop\n  jump\t// out\n    /* \"#utility.yul\":6092:6485   */\ntag_50:\n    /* \"#utility.yul\":6161:6167   */\n  0x00\n    /* \"#utility.yul\":6211:6212   */\n  0x08\n    /* \"#utility.yul\":6199:6209   */\n  dup4\n    /* \"#utility.yul\":6195:6213   */\n  mul\n    /* \"#utility.yul\":6234:6331   */\n  tag_131\n    /* \"#utility.yul\":6264:6330   */\n  0xffffffffffffffffffffffffffffffffffffffffffffffffffffffffffffffff\n    /* \"#utility.yul\":6253:6262   */\n  dup3\n    /* \"#utility.yul\":6234:6331   */\n  tag_49\n  jump\t// in\ntag_131:\n    /* \"#utility.yul\":6352:6391   */\n  tag_132\n    /* \"#utility.yul\":6382:6390   */\n  dup7\n    /* \"#utility.yul\":6371:6380   */\n  dup4\n    /* \"#utility.yul\":6352:6391   */\n  tag_49\n  jump\t// in\ntag_132:\n    /* \"#utility.yul\":6340:6391   */\n  swap6\n  pop\n    /* \"#utility.yul\":6424:6428   */\n  dup1\n    /* \"#utility.yul\":6420:6429   */\n  not\n    /* \"#utility.yul\":6413:6418   */\n  dup5\n    /* \"#utility.yul\":6409:6430   */\n  and\n    /* \"#utility.yul\":6400:6430   */\n  swap4\n  pop\n    /* \"#utility.yul\":6473:6477   */\n  dup1\n    /* \"#utility.yul\":6463:6471   */\n  dup7\n    /* \"#utility.yul\":6459:6478   */\n  and\n    /* \"#utility.yul\":6452:6457   */\n  dup5\n    /* \"#utility.yul\":6449:6479   */\n  or\n    /* \"#utility.yul\":6439:6479   */\n  swap3\n  pop\n    /* \"#utility.yul\":6168:6485   */\n  pop\n  pop\n    /* \"#utility.yul\":6092:6485   */\n  swap4\n  swap3\n  pop\n  pop\n  pop\n  jump\t// out\n    /* \"#utility.yul\":6491:6568   */\ntag_51:\n    /* \"#utility.yul\":6528:6535   */\n  0x00\n    /* \"#utility.yul\":6557:6562   */\n  dup2\n    /* \"#utility.yul\":6546:6562   */\n  swap1\n  pop\n    /* \"#utility.yul\":6491:6568   */\n  swap2\n  swap1\n  pop\n  jump\t// out\n    /* \"#utility.yul\":6574:6634   */\ntag_52:\n    /* \"#utility.yul\":6602:6605   */\n  0x00\n    /* \"#utility.yul\":6623:6628   */\n  dup2\n    /* \"#utility.yul\":6616:6628   */\n  swap1\n  pop\n    /* \"#utility.yul\":6574:6634   */\n  swap2\n  swap1\n  pop\n  jump\t// out\n    /* \"#utility.yul\":6640:6782   */\ntag_53:\n    /* \"#utility.yul\":6690:6699   */\n  0x00\n    /* \"#utility.yul\":6723:6776   */\n  tag_136\n    /* \"#utility.yul\":6741:6775   */\n  tag_137\n    /* \"#utility.yul\":6750:6774   */\n  tag_138\n    /* \"#utility.yul\":6768:6773   */\n  dup5\n    /* \"#utility.yul\":6750:6774   */\n  tag_51\n  jump\t// in\ntag_138:\n    /* \"#utility.yul\":6741:6775   */\n  tag_52\n  jump\t// in\ntag_137:\n    /* \"#utility.yul\":6723:6776   */\n  tag_51\n  jump\t// in\ntag_136:\n    /* \"#utility.yul\":6710:6776   */\n  swap1\n  pop\n    /* \"#utility.yul\":6640:6782   */\n  swap2\n  swap1\n  pop\n  jump\t// out\n    /* \"#utility.yul\":6788:6863   */\ntag_54:\n    /* \"#utility.yul\":6831:6834   */\n  0x00\n    /* \"#utility.yul\":6852:6857   */\n  dup2\n    /* \"#utility.yul\":6845:6857   */\n  swap1\n  pop\n    /* \"#utility.yul\":6788:6863   */\n  swap2\n  swap1\n  pop\n  jump\t// out\n    /* \"#utility.yul\":6869:7138   */\ntag_55:\n    /* \"#utility.yul\":6979:7018   */\n  tag_141\n    /* \"#utility.yul\":7010:7017   */\n  dup4\n    /* \"#utility.yul\":6979:7018   */\n  tag_53\n  jump\t// in\ntag_141:\n    /* \"#utility.yul\":7040:7131   */\n  tag_142\n    /* \"#utility.yul\":7089:7130   */\n  tag_143\n    /* \"#utility.yul\":7113:7129   */\n  dup3\n    /* \"#utility.yul\":7089:7130   */\n  tag_54\n  jump\t// in\ntag_143:\n    /* \"#utility.yul\":7081:7087   */\n  dup5\n    /* \"#utility.yul\":7074:7078   */\n  dup5\n    /* \"#utility.yul\":7068:7079   */\n  sload\n    /* \"#utility.yul\":7040:7131   */\n  tag_50\n  jump\t// in\ntag_142:\n    /* \"#utility.yul\":7034:7038   */\n  dup3\n    /* \"#utility.yul\":7027:7132   */\n  sstore\n    /* \"#utility.yul\":6945:7138   */\n  pop\n    /* \"#utility.yul\":6869:7138   */\n  pop\n  pop\n  pop\n  jump\t// out\n    /* \"#utility.yul\":7144:7217   */\ntag_56:\n    /* \"#utility.yul\":7189:7192   */\n  0x00\n    /* \"#utility.yul\":7144:7217   */\n  swap1\n  jump\t// out\n    /* \"#utility.yul\":7223:7412   */\ntag_57:\n    /* \"#utility.yul\":7300:7332   */\n  tag_146\n  tag_56\n  jump\t// in\ntag_146:\n    /* \"#utility.yul\":7341:7406   */\n  tag_147\n    /* \"#utility.yul\":7399:7405   */\n  dup2\n    /* \"#utility.yul\":7391:7397   */\n  dup5\n    /* \"#utility.yul\":7385:7389   */\n  dup5\n    /* \"#utility.yul\":7341:7406   */\n  tag_55\n  jump\t// in\ntag_147:\n    /* \"#utility.yul\":7276:7412   */\n  pop\n    /* \"#utility.yul\":7223:7412   */\n  pop\n  pop\n  jump\t// out\n    /* \"#utility.yul\":7418:7604   */\ntag_58:\n    /* \"#utility.yul\":7478:7598   */\ntag_149:\n    /* \"#utility.yul\":7495:7498   */\n  dup2\n    /* \"#utility.yul\":7488:7493   */\n  dup2\n    /* \"#utility.yul\":7485:7499   */\n  lt\n    /* \"#utility.yul\":7478:7598   */\n  iszero\n  tag_151\n  jumpi\n    /* \"#utility.yul\":7549:7588   */\n  tag_152\n    /* \"#utility.yul\":7586:7587   */\n  0x00\n    /* \"#utility.yul\":7579:7584   */\n  dup3\n    /* \"#utility.yul\":7549:7588   */\n  tag_57\n  jump\t// in\ntag_152:\n    /* \"#utility.yul\":7522:7523   */\n  0x01\n    /* \"#utility.yul\":7515:7520   */\n  dup2\n    /* \"#utility.yul\":7511:7524   */\n  add\n    /* \"#utility.yul\":7502:7524   */\n  swap1\n  pop\n    /* \"#utility.yul\":7478:7598   */\n  jump(tag_149)\ntag_151:\n    /* \"#utility.yul\":7418:7604   */\n  pop\n  pop\n  jump\t// out\n    /* \"#utility.yul\":7610:8153   */\ntag_59:\n    /* \"#utility.yul\":7711:7713   */\n  0x1f\n    /* \"#utility.yul\":7706:7709   */\n  dup3\n    /* \"#utility.yul\":7703:7714   */\n  gt\n    /* \"#utility.yul\":7700:8146   */\n  iszero\n  tag_154\n  jumpi\n    /* \"#utility.yul\":7745:7783   */\n  tag_155\n    /* \"#utility.yul\":7777:7782   */\n  dup2\n    /* \"#utility.yul\":7745:7783   */\n  tag_47\n  jump\t// in\ntag_155:\n    /* \"#utility.yul\":7829:7858   */\n  tag_156\n    /* \"#utility.yul\":7847:7857   */\n  dup5\n    /* \"#utility.yul\":7829:7858   */\n  tag_48\n  jump\t// in\ntag_156:\n    /* \"#utility.yul\":7819:7827   */\n  dup2\n    /* \"#utility.yul\":7815:7859   */\n  add\n    /* \"#utility.yul\":8012:8014   */\n  0x20\n    /* \"#utility.yul\":8000:8010   */\n  dup6\n    /* \"#utility.yul\":7997:8015   */\n  lt\n    /* \"#utility.yul\":7994:8043   */\n  iszero\n  tag_157\n  jumpi\n    /* \"#utility.yul\":8033:8041   */\n  dup2\n    /* \"#utility.yul\":8018:8041   */\n  swap1\n  pop\n    /* \"#utility.yul\":7994:8043   */\ntag_157:\n    /* \"#utility.yul\":8056:8136   */\n  tag_158\n    /* \"#utility.yul\":8112:8134   */\n  tag_159\n    /* \"#utility.yul\":8130:8133   */\n  dup6\n    /* \"#utility.yul\":8112:8134   */\n  tag_48\n  jump\t// in\ntag_159:\n    /* \"#utility.yul\":8102:8110   */\n  dup4\n    /* \"#utility.yul\":8098:8135   */\n  add\n    /* \"#utility.yul\":8085:8096   */\n  dup3\n    /* \"#utility.yul\":8056:8136   */\n  tag_58\n  jump\t// in\ntag_158:\n    /* \"#utility.yul\":7715:8146   */\n  pop\n  pop\n    /* \"#utility.yul\":7700:8146   */\ntag_154:\n    /* \"#utility.yul\":7610:8153   */\n  pop\n  pop\n  pop\n  jump\t// out\n    /* \"#utility.yul\":8159:8276   */\ntag_60:\n    /* \"#utility.yul\":8213:8221   */\n  0x00\n    /* \"#utility.yul\":8263:8268   */\n  dup3\n    /* \"#utility.yul\":8257:8261   */\n  dup3\n    /* \"#utility.yul\":8253:8269   */\n  shr\n    /* \"#utility.yul\":8232:8269   */\n  swap1\n  pop\n    /* \"#utility.yul\":8159:8276   */\n  swap3\n  swap2\n  pop\n  pop\n  jump\t// out\n    /* \"#utility.yul\":8282:8451   */\ntag_61:\n    /* \"#utility.yul\":8326:8332   */\n  0x00\n    /* \"#utility.yul\":8359:8410   */\n  tag_162\n    /* \"#utility.yul\":8407:8408   */\n  0x00\n    /* \"#utility.yul\":8403:8409   */\n  not\n    /* \"#utility.yul\":8395:8400   */\n  dup5\n    /* \"#utility.yul\":8392:8393   */\n  0x08\n    /* \"#utility.yul\":8388:8401   */\n  mul\n    /* \"#utility.yul\":8359:8410   */\n  tag_60\n  jump\t// in\ntag_162:\n    /* \"#utility.yul\":8355:8411   */\n  not\n    /* \"#utility.yul\":8440:8444   */\n  dup1\n    /* \"#utility.yul\":8434:8438   */\n  dup4\n    /* \"#utility.yul\":8430:8445   */\n  and\n    /* \"#utility.yul\":8420:8445   */\n  swap2\n  pop\n    /* \"#utility.yul\":8333:8451   */\n  pop\n    /* \"#utility.yul\":8282:8451   */\n  swap3\n  swap2\n  pop\n  pop\n  jump\t// out\n    /* \"#utility.yul\":8456:8751   */\ntag_62:\n    /* \"#utility.yul\":8532:8536   */\n  0x00\n    /* \"#utility.yul\":8678:8707   */\n  tag_164\n    /* \"#utility.yul\":8703:8706   */\n  dup4\n    /* \"#utility.yul\":8697:8701   */\n  dup4\n    /* \"#utility.yul\":8678:8707   */\n  tag_61\n  jump\t// in\ntag_164:\n    /* \"#utility.yul\":8670:8707   */\n  swap2\n  pop\n    /* \"#utility.yul\":8740:8743   */\n  dup3\n    /* \"#utility.yul\":8737:8738   */\n  0x02\n    /* \"#utility.yul\":8733:8744   */\n  mul\n    /* \"#utility.yul\":8727:8731   */\n  dup3\n    /* \"#utility.yul\":8724:8745   */\n  or\n    /* \"#utility.yul\":8716:8745   */\n  swap1\n  pop\n    /* \"#utility.yul\":8456:8751   */\n  swap3\n  swap2\n  pop\n  pop\n  jump\t// out\n    /* \"#utility.yul\":8756:10151   */\ntag_13:\n    /* \"#utility.yul\":8873:8910   */\n  tag_166\n    /* \"#utility.yul\":8906:8909   */\n  dup3\n    /* \"#utility.yul\":8873:8910   */\n  tag_45\n  jump\t// in\ntag_166:\n    /* \"#utility.yul\":8975:8993   */\n  0xffffffffffffffff\n    /* \"#utility.yul\":8967:8973   */\n  dup2\n    /* \"#utility.yul\":8964:8994   */\n  gt\n    /* \"#utility.yul\":8961:9017   */\n  iszero\n  tag_167\n  jumpi\n    /* \"#utility.yul\":8997:9015   */\n  tag_168\n  tag_33\n  jump\t// in\ntag_168:\n    /* \"#utility.yul\":8961:9017   */\ntag_167:\n    /* \"#utility.yul\":9041:9079   */\n  tag_169\n    /* \"#utility.yul\":9073:9077   */\n  dup3\n    /* \"#utility.yul\":9067:9078   */\n  sload\n    /* \"#utility.yul\":9041:9079   */\n  tag_21\n  jump\t// in\ntag_169:\n    /* \"#utility.yul\":9126:9193   */\n  tag_170\n    /* \"#utility.yul\":9186:9192   */\n  dup3\n    /* \"#utility.yul\":9178:9184   */\n  dup3\n    /* \"#utility.yul\":9172:9176   */\n  dup6\n    /* \"#utility.yul\":9126:9193   */\n  tag_59\n  jump\t// in\ntag_170:\n    /* \"#utility.yul\":9220:9221   */\n  0x00\n    /* \"#utility.yul\":9244:9248   */\n  0x20\n    /* \"#utility.yul\":9231:9248   */\n  swap1\n  pop\n    /* \"#utility.yul\":9276:9278   */\n  0x1f\n    /* \"#utility.yul\":9268:9274   */\n  dup4\n    /* \"#utility.yul\":9265:9279   */\n  gt\n    /* \"#utility.yul\":9293:9294   */\n  0x01\n    /* \"#utility.yul\":9288:9906   */\n  dup2\n  eq\n  tag_172\n  jumpi\n    /* \"#utility.yul\":9950:9951   */\n  0x00\n    /* \"#utility.yul\":9967:9973   */\n  dup5\n    /* \"#utility.yul\":9964:10041   */\n  iszero\n  tag_173\n  jumpi\n    /* \"#utility.yul\":10016:10025   */\n  dup3\n    /* \"#utility.yul\":10011:10014   */\n  dup8\n    /* \"#utility.yul\":10007:10026   */\n  add\n    /* \"#utility.yul\":10001:10027   */\n  mload\n    /* \"#utility.yul\":9992:10027   */\n  swap1\n  pop\n    /* \"#utility.yul\":9964:10041   */\ntag_173:\n    /* \"#utility.yul\":10067:10134   */\n  tag_174\n    /* \"#utility.yul\":10127:10133   */\n  dup6\n    /* \"#utility.yul\":10120:10125   */\n  dup3\n    /* \"#utility.yul\":10067:10134   */\n  tag_62\n  jump\t// in\ntag_174:\n    /* \"#utility.yul\":10061:10065   */\n  dup7\n    /* \"#utility.yul\":10054:10135   */\n  sstore\n    /* \"#utility.yul\":9923:10145   */\n  pop\n    /* \"#utility.yul\":9258:10145   */\n  jump(tag_171)\n    /* \"#utility.yul\":9288:9906   */\ntag_172:\n    /* \"#utility.yul\":9340:9344   */\n  0x1f\n    /* \"#utility.yul\":9336:9345   */\n  not\n    /* \"#utility.yul\":9328:9334   */\n  dup5\n    /* \"#utility.yul\":9324:9346   */\n  and\n    /* \"#utility.yul\":9374:9411   */\n  tag_175\n    /* \"#utility.yul\":9406:9410   */\n  dup7\n    /* \"#utility.yul\":9374:9411   */\n  tag_47\n  jump\t// in\ntag_175:\n    /* \"#utility.yul\":9433:9434   */\n  0x00\n    /* \"#utility.yul\":9447:9655   */\ntag_176:\n    /* \"#utility.yul\":9461:9468   */\n  dup3\n    /* \"#utility.yul\":9458:9459   */\n  dup2\n    /* \"#utility.yul\":9455:9469   */\n  lt\n    /* \"#utility.yul\":9447:9655   */\n  iszero\n  tag_178\n  jumpi\n    /* \"#utility.yul\":9540:9549   */\n  dup5\n    /* \"#utility.yul\":9535:9538   */\n  dup10\n    /* \"#utility.yul\":9531:9550   */\n  add\n    /* \"#utility.yul\":9525:9551   */\n  mload\n    /* \"#utility.yul\":9517:9523   */\n  dup3\n    /* \"#utility.yul\":9510:9552   */\n  sstore\n    /* \"#utility.yul\":9591:9592   */\n  0x01\n    /* \"#utility.yul\":9583:9589   */\n  dup3\n    /* \"#utility.yul\":9579:9593   */\n  add\n    /* \"#utility.yul\":9569:9593   */\n  swap2\n  pop\n    /* \"#utility.yul\":9638:9640   */\n  0x20\n    /* \"#utility.yul\":9627:9636   */\n  dup6\n    /* \"#utility.yul\":9623:9641   */\n  add\n    /* \"#utility.yul\":9610:9641   */\n  swap5\n  pop\n    /* \"#utility.yul\":9484:9488   */\n  0x20\n    /* \"#utility.yul\":9481:9482   */\n  dup2\n    /* \"#utility.yul\":9477:9489   */\n  add\n    /* \"#utility.yul\":9472:9489   */\n  swap1\n  pop\n    /* \"#utility.yul\":9447:9655   */\n  jump(tag_176)\ntag_178:\n    /* \"#utility.yul\":9683:9689   */\n  dup7\n    /* \"#utility.yul\":9674:9681   */\n  dup4\n    /* \"#utility.yul\":9671:9690   */\n  lt\n    /* \"#utility.yul\":9668:9847   */\n  iszero\n  tag_179\n  jumpi\n    /* \"#utility.yul\":9741:9750   */\n  dup5\n    /* \"#utility.yul\":9736:9739   */\n  dup10\n    /* \"#utility.yul\":9732:9751   */\n  add\n    /* \"#utility.yul\":9726:9752   */\n  mload\n    /* \"#utility.yul\":9784:9832   */\n  tag_180\n    /* \"#utility.yul\":9826:9830   */\n  0x1f\n    /* \"#utility.yul\":9818:9824   */\n  dup10\n    /* \"#utility.yul\":9814:9831   */\n  and\n    /* \"#utility.yul\":9803:9812   */\n  dup3\n    /* \"#utility.yul\":9784:9832   */\n  tag_61\n  jump\t// in\ntag_180:\n    /* \"#utility.yul\":9776:9782   */\n  dup4\n    /* \"#utility.yul\":9769:9833   */\n  sstore\n    /* \"#utility.yul\":9691:9847   */\n  pop\n    /* \"#utility.yul\":9668:9847   */\ntag_179:\n    /* \"#utility.yul\":9893:9894   */\n  0x01\n    /* \"#utility.yul\":9889:9890   */\n  0x02\n    /* \"#utility.yul\":9881:9887   */\n  dup9\n    /* \"#utility.yul\":9877:9891   */\n  mul\n    /* \"#utility.yul\":9873:9895   */\n  add\n    /* \"#utility.yul\":9867:9871   */\n  dup9\n    /* \"#utility.yul\":9860:9896   */\n  sstore\n    /* \"#utility.yul\":9295:9906   */\n  pop\n  pop\n  pop\n    /* \"#utility.yul\":9258:10145   */\ntag_171:\n  pop\n    /* \"#utility.yul\":8848:10151   */\n  pop\n  pop\n  pop\n    /* \"#utility.yul\":8756:10151   */\n  pop\n  pop\n  jump\t// out\n    /* \"contracts/src/Voting.sol\":67:968  contract Voting {... */\ntag_8:\n  dataSize(sub_0)\n  dup1\n  dataOffset(sub_0)\n  0x00\n  codecopy\n  0x00\n  return\nstop\n\nsub_0: assembly {\n        /* \"contracts/src/Voting.sol\":67:968  contract Voting {... */\n      mstore(0x40, 0x80)\n      callvalue\n      dup1\n      iszero\n      tag_1\n      jumpi\n      0x00\n      dup1\n      revert\n    tag_1:\n      pop\n      jumpi(tag_2, lt(calldatasize, 0x04))\n      shr(0xe0, calldataload(0x00))\n      dup1\n      0x4a3bf377\n      eq\n      tag_3\n      jumpi\n      dup1\n      0x538c91b2\n      eq\n      tag_4\n      jumpi\n      dup1\n      0x8d4b44d9\n      eq\n      tag_5\n      jumpi\n      dup1\n      0xb13c744b\n      eq\n      tag_6\n      jumpi\n      dup1\n      0xe89927ef\n      eq\n      tag_7\n      jumpi\n    tag_2:\n      0x00\n      dup1\n      revert\n        /* \"contracts/src/Voting.sol\":290:467  function totalVotesFor(string memory candidate) view public returns (uint256) {... */\n    tag_3:\n      tag_8\n      0x04\n      dup1\n      calldatasize\n      sub\n      dup2\n      add\n      swap1\n      tag_9\n      swap2\n      swap1\n      tag_10\n      jump\t// in\n    tag_9:\n      tag_11\n      jump\t// in\n    tag_8:\n      mload(0x40)\n      tag_12\n      swap2\n      swap1\n      tag_13\n      jump\t// in\n    tag_12:\n      mload(0x40)\n      dup1\n      swap2\n      sub\n      swap1\n      return\n        /* \"contracts/src/Voting.sol\":635:965  function validCandidate(string memory candidate) view public returns (bool) {... */\n    tag_4:\n      tag_14\n      0x04\n      dup1\n      calldatasize\n      sub\n      dup2\n      add\n      swap1\n      tag_15\n      swap2\n      swap1\n      tag_10\n      jump\t// in\n    tag_15:\n      tag_16\n      jump\t// in\n    tag_14:\n      mload(0x40)\n      tag_17\n      swap2\n      swap1\n      tag_18\n      jump\t// in\n    tag_17:\n      mload(0x40)\n      dup1\n      swap2\n      sub\n      swap1\n      return\n        /* \"contracts/src/Voting.sol\":92:140  mapping (string => uint256) public votesReceived */\n    tag_5:\n      tag_19\n      0x04\n      dup1\n      calldatasize\n      sub\n      dup2\n      add\n      swap1\n      tag_20\n      swap2\n      swap1\n      tag_10\n      jump\t// in\n    tag_20:\n      tag_21\n      jump\t// in\n    tag_19:\n      mload(0x40)\n      tag_22\n      swap2\n      swap1\n      tag_13\n      jump\t// in\n    tag_22:\n      mload(0x40)\n      dup1\n      swap2\n      sub\n      swap1\n      return\n        /* \"contracts/src/Voting.sol\":153:182  string[] public candidateList */\n    tag_6:\n      tag_23\n      0x04\n      dup1\n      calldatasize\n      sub\n      dup2\n      add\n      swap1\n      tag_24\n      swap2\n      swap1\n      tag_25\n      jump\t// in\n    tag_24:\n      tag_26\n      jump\t// in\n    tag_23:\n      mload(0x40)\n      tag_27\n      swap2\n      swap1\n      tag_28\n      jump\t// in\n    tag_27:\n      mload(0x40)\n      dup1\n      swap2\n      sub\n      swap1\n      return\n        /* \"contracts/src/Voting.sol\":475:627  function voteForCandidate(string memory candidate) public {... */\n    tag_7:\n      tag_29\n      0x04\n      dup1\n      calldatasize\n      sub\n      dup2\n      add\n      swap1\n      tag_30\n      swap2\n      swap1\n      tag_10\n      jump\t// in\n    tag_30:\n      tag_31\n      jump\t// in\n    tag_29:\n      stop\n        /* \"contracts/src/Voting.sol\":290:467  function totalVotesFor(string memory candidate) view public returns (uint256) {... */\n    tag_11:\n        /* \"contracts/src/Voting.sol\":359:366  uint256 */\n      0x00\n        /* \"contracts/src/Voting.sol\":389:414  validCandidate(candidate) */\n      tag_33\n        /* \"contracts/src/Voting.sol\":404:413  candidate */\n      dup3\n        /* \"contracts/src/Voting.sol\":389:403  validCandidate */\n      tag_16\n        /* \"contracts/src/Voting.sol\":389:414  validCandidate(candidate) */\n      jump\t// in\n    tag_33:\n        /* \"contracts/src/Voting.sol\":381:415  require(validCandidate(candidate)) */\n      tag_34\n      jumpi\n      0x00\n      dup1\n      revert\n    tag_34:\n        /* \"contracts/src/Voting.sol\":435:448  votesReceived */\n      0x00\n        /* \"contracts/src/Voting.sol\":449:458  candidate */\n      dup3\n        /* \"contracts/src/Voting.sol\":435:459  votesReceived[candidate] */\n      mload(0x40)\n      tag_35\n      swap2\n      swap1\n      tag_36\n      jump\t// in\n    tag_35:\n      swap1\n      dup2\n      mstore\n      0x20\n      add\n      mload(0x40)\n      dup1\n      swap2\n      sub\n      swap1\n      keccak256\n      sload\n        /* \"contracts/src/Voting.sol\":428:459  return votesReceived[candidate] */\n      swap1\n      pop\n        /* \"contracts/src/Voting.sol\":290:467  function totalVotesFor(string memory candidate) view public returns (uint256) {... */\n      swap2\n      swap1\n      pop\n      jump\t// out\n        /* \"contracts/src/Voting.sol\":635:965  function validCandidate(string memory candidate) view public returns (bool) {... */\n    tag_16:\n        /* \"contracts/src/Voting.sol\":705:709  bool */\n      0x00\n        /* \"contracts/src/Voting.sol\":727:733  uint i */\n      dup1\n        /* \"contracts/src/Voting.sol\":736:737  0 */\n      0x00\n        /* \"contracts/src/Voting.sol\":727:737  uint i = 0 */\n      swap1\n      pop\n        /* \"contracts/src/Voting.sol\":722:935  for (uint i = 0; i < candidateList.length; i++) {... */\n    tag_38:\n        /* \"contracts/src/Voting.sol\":743:756  candidateList */\n      0x01\n        /* \"contracts/src/Voting.sol\":743:763  candidateList.length */\n      dup1\n      sload\n      swap1\n      pop\n        /* \"contracts/src/Voting.sol\":739:740  i */\n      dup2\n        /* \"contracts/src/Voting.sol\":739:763  i < candidateList.length */\n      lt\n        /* \"contracts/src/Voting.sol\":722:935  for (uint i = 0; i < candidateList.length; i++) {... */\n      iszero\n      tag_39\n      jumpi\n        /* \"contracts/src/Voting.sol\":865:874  candidate */\n      dup3\n        /* \"contracts/src/Voting.sol\":848:875  abi.encodePacked(candidate) */\n      add(0x20, mload(0x40))\n      tag_41\n      swap2\n      swap1\n      tag_36\n      jump\t// in\n    tag_41:\n      mload(0x40)\n      0x20\n      dup2\n      dup4\n      sub\n      sub\n      dup2\n      mstore\n      swap1\n      0x40\n      mstore\n        /* \"contracts/src/Voting.sol\":838:876  keccak256(abi.encodePacked(candidate)) */\n      dup1\n      mload\n      swap1\n      0x20\n      add\n      keccak256\n        /* \"contracts/src/Voting.sol\":816:829  candidateList */\n      0x01\n        /* \"contracts/src/Voting.sol\":830:831  i */\n      dup3\n        /* \"contracts/src/Voting.sol\":816:832  candidateList[i] */\n      dup2\n      sload\n      dup2\n      lt\n      tag_42\n      jumpi\n      tag_43\n      tag_44\n      jump\t// in\n    tag_43:\n    tag_42:\n      swap1\n      0x00\n      mstore\n      keccak256(0x00, 0x20)\n      add\n        /* \"contracts/src/Voting.sol\":799:833  abi.encodePacked(candidateList[i]) */\n      add(0x20, mload(0x40))\n      tag_46\n      swap2\n      swap1\n      tag_47\n      jump\t// in\n    tag_46:\n      mload(0x40)\n      0x20\n      dup2\n      dup4\n      sub\n      sub\n      dup2\n      mstore\n      swap1\n      0x40\n      mstore\n        /* \"contracts/src/Voting.sol\":789:834  keccak256(abi.encodePacked(candidateList[i])) */\n      dup1\n      mload\n      swap1\n      0x20\n      add\n      keccak256\n        /* \"contracts/src/Voting.sol\":789:876  keccak256(abi.encodePacked(candidateList[i])) == keccak256(abi.encodePacked(candidate)) */\n      sub\n        /* \"contracts/src/Voting.sol\":785:924  if (keccak256(abi.encodePacked(candidateList[i])) == keccak256(abi.encodePacked(candidate))) {... */\n      tag_48\n      jumpi\n        /* \"contracts/src/Voting.sol\":904:908  true */\n      0x01\n        /* \"contracts/src/Voting.sol\":897:908  return true */\n      swap2\n      pop\n      pop\n      jump(tag_37)\n        /* \"contracts/src/Voting.sol\":785:924  if (keccak256(abi.encodePacked(candidateList[i])) == keccak256(abi.encodePacked(candidate))) {... */\n    tag_48:\n        /* \"contracts/src/Voting.sol\":765:768  i++ */\n      dup1\n      dup1\n      tag_49\n      swap1\n      tag_50\n      jump\t// in\n    tag_49:\n      swap2\n      pop\n      pop\n        /* \"contracts/src/Voting.sol\":722:935  for (uint i = 0; i < candidateList.length; i++) {... */\n      jump(tag_38)\n    tag_39:\n      pop\n        /* \"contracts/src/Voting.sol\":952:957  false */\n      0x00\n        /* \"contracts/src/Voting.sol\":945:957  return false */\n      swap1\n      pop\n        /* \"contracts/src/Voting.sol\":635:965  function validCandidate(string memory candidate) view public returns (bool) {... */\n    tag_37:\n      swap2\n      swap1\n      pop\n      jump\t// out\n        /* \"contracts/src/Voting.sol\":92:140  mapping (string => uint256) public votesReceived */\n    tag_21:\n      0x00\n      dup2\n      dup1\n      mload\n      0x20\n      dup2\n      add\n      dup3\n      add\n      dup1\n      mload\n      dup5\n      dup3\n      mstore\n      0x20\n      dup4\n      add\n      0x20\n      dup6\n      add\n      keccak256\n      dup2\n      dup4\n      mstore\n      dup1\n      swap6\n      pop\n      pop\n      pop\n      pop\n      pop\n      pop\n      0x00\n      swap2\n      pop\n      swap1\n      pop\n      sload\n      dup2\n      jump\t// out\n        /* \"contracts/src/Voting.sol\":153:182  string[] public candidateList */\n    tag_26:\n      0x01\n      dup2\n      dup2\n      sload\n      dup2\n      lt\n      tag_51\n      jumpi\n      0x00\n      dup1\n      revert\n    tag_51:\n      swap1\n      0x00\n      mstore\n      keccak256(0x00, 0x20)\n      add\n      0x00\n      swap2\n      pop\n      swap1\n      pop\n      dup1\n      sload\n      tag_53\n      swap1\n      tag_54\n      jump\t// in\n    tag_53:\n      dup1\n      0x1f\n      add\n      0x20\n      dup1\n      swap2\n      div\n      mul\n      0x20\n      add\n      mload(0x40)\n      swap1\n      dup2\n      add\n      0x40\n      mstore\n      dup1\n      swap3\n      swap2\n      swap1\n      dup2\n      dup2\n      mstore\n      0x20\n      add\n      dup3\n      dup1\n      sload\n      tag_55\n      swap1\n      tag_54\n      jump\t// in\n    tag_55:\n      dup1\n      iszero\n      tag_56\n      jumpi\n      dup1\n      0x1f\n      lt\n      tag_57\n      jumpi\n      0x0100\n      dup1\n      dup4\n      sload\n      div\n      mul\n      dup4\n      mstore\n      swap2\n      0x20\n      add\n      swap2\n      jump(tag_56)\n    tag_57:\n      dup3\n      add\n      swap2\n      swap1\n      0x00\n      mstore\n      keccak256(0x00, 0x20)\n      swap1\n    tag_58:\n      dup2\n      sload\n      dup2\n      mstore\n      swap1\n      0x01\n      add\n      swap1\n      0x20\n      add\n      dup1\n      dup4\n      gt\n      tag_58\n      jumpi\n      dup3\n      swap1\n      sub\n      0x1f\n      and\n      dup3\n      add\n      swap2\n    tag_56:\n      pop\n      pop\n      pop\n      pop\n      pop\n      dup2\n      jump\t// out\n        /* \"contracts/src/Voting.sol\":475:627  function voteForCandidate(string memory candidate) public {... */\n    tag_31:\n        /* \"contracts/src/Voting.sol\":554:579  validCandidate(candidate) */\n      tag_60\n        /* \"contracts/src/Voting.sol\":569:578  candidate */\n      dup2\n        /* \"contracts/src/Voting.sol\":554:568  validCandidate */\n      tag_16\n        /* \"contracts/src/Voting.sol\":554:579  validCandidate(candidate) */\n      jump\t// in\n    tag_60:\n        /* \"contracts/src/Voting.sol\":546:580  require(validCandidate(candidate)) */\n      tag_61\n      jumpi\n      0x00\n      dup1\n      revert\n    tag_61:\n        /* \"contracts/src/Voting.sol\":618:619  1 */\n      0x01\n        /* \"contracts/src/Voting.sol\":591:604  votesReceived */\n      0x00\n        /* \"contracts/src/Voting.sol\":605:614  candidate */\n      dup3\n        /* \"contracts/src/Voting.sol\":591:615  votesReceived[candidate] */\n      mload(0x40)\n      tag_62\n      swap2\n      swap1\n      tag_36\n      jump\t// in\n    tag_62:\n      swap1\n      dup2\n      mstore\n      0x20\n      add\n      mload(0x40)\n      dup1\n      swap2\n      sub\n      swap1\n      keccak256\n      0x00\n        /* \"contracts/src/Voting.sol\":591:619  votesReceived[candidate] +=1 */\n      dup3\n      dup3\n      sload\n      tag_63\n      swap2\n      swap1\n      tag_64\n      jump\t// in\n    tag_63:\n      swap3\n      pop\n      pop\n      dup2\n      swap1\n      sstore\n      pop\n        /* \"contracts/src/Voting.sol\":475:627  function voteForCandidate(string memory candidate) public {... */\n      pop\n      jump\t// out\n        /* \"#utility.yul\":7:82   */\n    tag_65:\n        /* \"#utility.yul\":40:46   */\n      0x00\n        /* \"#utility.yul\":73:75   */\n      0x40\n        /* \"#utility.yul\":67:76   */\n      mload\n        /* \"#utility.yul\":57:76   */\n      swap1\n      pop\n        /* \"#utility.yul\":7:82   */\n      swap1\n      jump\t// out\n        /* \"#utility.yul\":88:205   */\n    tag_66:\n        /* \"#utility.yul\":197:198   */\n      0x00\n        /* \"#utility.yul\":194:195   */\n      dup1\n        /* \"#utility.yul\":187:199   */\n      revert\n        /* \"#utility.yul\":211:328   */\n    tag_67:\n        /* \"#utility.yul\":320:321   */\n      0x00\n        /* \"#utility.yul\":317:318   */\n      dup1\n        /* \"#utility.yul\":310:322   */\n      revert\n        /* \"#utility.yul\":334:451   */\n    tag_68:\n        /* \"#utility.yul\":443:444   */\n      0x00\n        /* \"#utility.yul\":440:441   */\n      dup1\n        /* \"#utility.yul\":433:445   */\n      revert\n        /* \"#utility.yul\":457:574   */\n    tag_69:\n        /* \"#utility.yul\":566:567   */\n      0x00\n        /* \"#utility.yul\":563:564   */\n      dup1\n        /* \"#utility.yul\":556:568   */\n      revert\n        /* \"#utility.yul\":580:682   */\n    tag_70:\n        /* \"#utility.yul\":621:627   */\n      0x00\n        /* \"#utility.yul\":672:674   */\n      0x1f\n        /* \"#utility.yul\":668:675   */\n      not\n        /* \"#utility.yul\":663:665   */\n      0x1f\n        /* \"#utility.yul\":656:661   */\n      dup4\n        /* \"#utility.yul\":652:666   */\n      add\n        /* \"#utility.yul\":648:676   */\n      and\n        /* \"#utility.yul\":638:676   */\n      swap1\n      pop\n        /* \"#utility.yul\":580:682   */\n      swap2\n      swap1\n      pop\n      jump\t// out\n        /* \"#utility.yul\":688:868   */\n    tag_71:\n        /* \"#utility.yul\":736:813   */\n      0x4e487b7100000000000000000000000000000000000000000000000000000000\n        /* \"#utility.yul\":733:734   */\n      0x00\n        /* \"#utility.yul\":726:814   */\n      mstore\n        /* \"#utility.yul\":833:837   */\n      0x41\n        /* \"#utility.yul\":830:831   */\n      0x04\n        /* \"#utility.yul\":823:838   */\n      mstore\n        /* \"#utility.yul\":857:861   */\n      0x24\n        /* \"#utility.yul\":854:855   */\n      0x00\n        /* \"#utility.yul\":847:862   */\n      revert\n        /* \"#utility.yul\":874:1155   */\n    tag_72:\n        /* \"#utility.yul\":957:984   */\n      tag_103\n        /* \"#utility.yul\":979:983   */\n      dup3\n        /* \"#utility.yul\":957:984   */\n      tag_70\n      jump\t// in\n    tag_103:\n        /* \"#utility.yul\":949:955   */\n      dup2\n        /* \"#utility.yul\":945:985   */\n      add\n        /* \"#utility.yul\":1087:1093   */\n      dup2\n        /* \"#utility.yul\":1075:1085   */\n      dup2\n        /* \"#utility.yul\":1072:1094   */\n      lt\n        /* \"#utility.yul\":1051:1069   */\n      0xffffffffffffffff\n        /* \"#utility.yul\":1039:1049   */\n      dup3\n        /* \"#utility.yul\":1036:1070   */\n      gt\n        /* \"#utility.yul\":1033:1095   */\n      or\n        /* \"#utility.yul\":1030:1118   */\n      iszero\n      tag_104\n      jumpi\n        /* \"#utility.yul\":1098:1116   */\n      tag_105\n      tag_71\n      jump\t// in\n    tag_105:\n        /* \"#utility.yul\":1030:1118   */\n    tag_104:\n        /* \"#utility.yul\":1138:1148   */\n      dup1\n        /* \"#utility.yul\":1134:1136   */\n      0x40\n        /* \"#utility.yul\":1127:1149   */\n      mstore\n        /* \"#utility.yul\":917:1155   */\n      pop\n        /* \"#utility.yul\":874:1155   */\n      pop\n      pop\n      jump\t// out\n        /* \"#utility.yul\":1161:1290   */\n    tag_73:\n        /* \"#utility.yul\":1195:1201   */\n      0x00\n        /* \"#utility.yul\":1222:1242   */\n      tag_107\n      tag_65\n      jump\t// in\n    tag_107:\n        /* \"#utility.yul\":1212:1242   */\n      swap1\n      pop\n        /* \"#utility.yul\":1251:1284   */\n      tag_108\n        /* \"#utility.yul\":1279:1283   */\n      dup3\n        /* \"#utility.yul\":1271:1277   */\n      dup3\n        /* \"#utility.yul\":1251:1284   */\n      tag_72\n      jump\t// in\n    tag_108:\n        /* \"#utility.yul\":1161:1290   */\n      swap2\n      swap1\n      pop\n      jump\t// out\n        /* \"#utility.yul\":1296:1604   */\n    tag_74:\n        /* \"#utility.yul\":1358:1362   */\n      0x00\n        /* \"#utility.yul\":1448:1466   */\n      0xffffffffffffffff\n        /* \"#utility.yul\":1440:1446   */\n      dup3\n        /* \"#utility.yul\":1437:1467   */\n      gt\n        /* \"#utility.yul\":1434:1490   */\n      iszero\n      tag_110\n      jumpi\n        /* \"#utility.yul\":1470:1488   */\n      tag_111\n      tag_71\n      jump\t// in\n    tag_111:\n        /* \"#utility.yul\":1434:1490   */\n    tag_110:\n        /* \"#utility.yul\":1508:1537   */\n      tag_112\n        /* \"#utility.yul\":1530:1536   */\n      dup3\n        /* \"#utility.yul\":1508:1537   */\n      tag_70\n      jump\t// in\n    tag_112:\n        /* \"#utility.yul\":1500:1537   */\n      swap1\n      pop\n        /* \"#utility.yul\":1592:1596   */\n      0x20\n        /* \"#utility.yul\":1586:1590   */\n      dup2\n        /* \"#utility.yul\":1582:1597   */\n      add\n        /* \"#utility.yul\":1574:1597   */\n      swap1\n      pop\n        /* \"#utility.yul\":1296:1604   */\n      swap2\n      swap1\n      pop\n      jump\t// out\n        /* \"#utility.yul\":1610:1756   */\n    tag_75:\n        /* \"#utility.yul\":1707:1713   */\n      dup3\n        /* \"#utility.yul\":1702:1705   */\n      dup2\n        /* \"#utility.yul\":1697:1700   */\n      dup4\n        /* \"#utility.yul\":1684:1714   */\n      calldatacopy\n        /* \"#utility.yul\":1748:1749   */\n      0x00\n        /* \"#utility.yul\":1739:1745   */\n      dup4\n        /* \"#utility.yul\":1734:1737   */\n      dup4\n        /* \"#utility.yul\":1730:1746   */\n      add\n        /* \"#utility.yul\":1723:1750   */\n      mstore\n        /* \"#utility.yul\":1610:1756   */\n      pop\n      pop\n      pop\n      jump\t// out\n        /* \"#utility.yul\":1762:2187   */\n    tag_76:\n        /* \"#utility.yul\":1840:1845   */\n      0x00\n        /* \"#utility.yul\":1865:1931   */\n      tag_115\n        /* \"#utility.yul\":1881:1930   */\n      tag_116\n        /* \"#utility.yul\":1923:1929   */\n      dup5\n        /* \"#utility.yul\":1881:1930   */\n      tag_74\n      jump\t// in\n    tag_116:\n        /* \"#utility.yul\":1865:1931   */\n      tag_73\n      jump\t// in\n    tag_115:\n        /* \"#utility.yul\":1856:1931   */\n      swap1\n      pop\n        /* \"#utility.yul\":1954:1960   */\n      dup3\n        /* \"#utility.yul\":1947:1952   */\n      dup2\n        /* \"#utility.yul\":1940:1961   */\n      mstore\n        /* \"#utility.yul\":1992:1996   */\n      0x20\n        /* \"#utility.yul\":1985:1990   */\n      dup2\n        /* \"#utility.yul\":1981:1997   */\n      add\n        /* \"#utility.yul\":2030:2033   */\n      dup5\n        /* \"#utility.yul\":2021:2027   */\n      dup5\n        /* \"#utility.yul\":2016:2019   */\n      dup5\n        /* \"#utility.yul\":2012:2028   */\n      add\n        /* \"#utility.yul\":2009:2034   */\n      gt\n        /* \"#utility.yul\":2006:2118   */\n      iszero\n      tag_117\n      jumpi\n        /* \"#utility.yul\":2037:2116   */\n      tag_118\n      tag_69\n      jump\t// in\n    tag_118:\n        /* \"#utility.yul\":2006:2118   */\n    tag_117:\n        /* \"#utility.yul\":2127:2181   */\n      tag_119\n        /* \"#utility.yul\":2174:2180   */\n      dup5\n        /* \"#utility.yul\":2169:2172   */\n      dup3\n        /* \"#utility.yul\":2164:2167   */\n      dup6\n        /* \"#utility.yul\":2127:2181   */\n      tag_75\n      jump\t// in\n    tag_119:\n        /* \"#utility.yul\":1846:2187   */\n      pop\n        /* \"#utility.yul\":1762:2187   */\n      swap4\n      swap3\n      pop\n      pop\n      pop\n      jump\t// out\n        /* \"#utility.yul\":2207:2547   */\n    tag_77:\n        /* \"#utility.yul\":2263:2268   */\n      0x00\n        /* \"#utility.yul\":2312:2315   */\n      dup3\n        /* \"#utility.yul\":2305:2309   */\n      0x1f\n        /* \"#utility.yul\":2297:2303   */\n      dup4\n        /* \"#utility.yul\":2293:2310   */\n      add\n        /* \"#utility.yul\":2289:2316   */\n      slt\n        /* \"#utility.yul\":2279:2401   */\n      tag_121\n      jumpi\n        /* \"#utility.yul\":2320:2399   */\n      tag_122\n      tag_68\n      jump\t// in\n    tag_122:\n        /* \"#utility.yul\":2279:2401   */\n    tag_121:\n        /* \"#utility.yul\":2437:2443   */\n      dup2\n        /* \"#utility.yul\":2424:2444   */\n      calldataload\n        /* \"#utility.yul\":2462:2541   */\n      tag_123\n        /* \"#utility.yul\":2537:2540   */\n      dup5\n        /* \"#utility.yul\":2529:2535   */\n      dup3\n        /* \"#utility.yul\":2522:2526   */\n      0x20\n        /* \"#utility.yul\":2514:2520   */\n      dup7\n        /* \"#utility.yul\":2510:2527   */\n      add\n        /* \"#utility.yul\":2462:2541   */\n      tag_76\n      jump\t// in\n    tag_123:\n        /* \"#utility.yul\":2453:2541   */\n      swap2\n      pop\n        /* \"#utility.yul\":2269:2547   */\n      pop\n        /* \"#utility.yul\":2207:2547   */\n      swap3\n      swap2\n      pop\n      pop\n      jump\t// out\n        /* \"#utility.yul\":2553:3062   */\n    tag_10:\n        /* \"#utility.yul\":2622:2628   */\n      0x00\n        /* \"#utility.yul\":2671:2673   */\n      0x20\n        /* \"#utility.yul\":2659:2668   */\n      dup3\n        /* \"#utility.yul\":2650:2657   */\n      dup5\n        /* \"#utility.yul\":2646:2669   */\n      sub\n        /* \"#utility.yul\":2642:2674   */\n      slt\n        /* \"#utility.yul\":2639:2758   */\n      iszero\n      tag_125\n      jumpi\n        /* \"#utility.yul\":2677:2756   */\n      tag_126\n      tag_66\n      jump\t// in\n    tag_126:\n        /* \"#utility.yul\":2639:2758   */\n    tag_125:\n        /* \"#utility.yul\":2825:2826   */\n      0x00\n        /* \"#utility.yul\":2814:2823   */\n      dup3\n        /* \"#utility.yul\":2810:2827   */\n      add\n        /* \"#utility.yul\":2797:2828   */\n      calldataload\n        /* \"#utility.yul\":2855:2873   */\n      0xffffffffffffffff\n        /* \"#utility.yul\":2847:2853   */\n      dup2\n        /* \"#utility.yul\":2844:2874   */\n      gt\n        /* \"#utility.yul\":2841:2958   */\n      iszero\n      tag_127\n      jumpi\n        /* \"#utility.yul\":2877:2956   */\n      tag_128\n      tag_67\n      jump\t// in\n    tag_128:\n        /* \"#utility.yul\":2841:2958   */\n    tag_127:\n        /* \"#utility.yul\":2982:3045   */\n      tag_129\n        /* \"#utility.yul\":3037:3044   */\n      dup5\n        /* \"#utility.yul\":3028:3034   */\n      dup3\n        /* \"#utility.yul\":3017:3026   */\n      dup6\n        /* \"#utility.yul\":3013:3035   */\n      add\n        /* \"#utility.yul\":2982:3045   */\n      tag_77\n      jump\t// in\n    tag_129:\n        /* \"#utility.yul\":2972:3045   */\n      swap2\n      pop\n        /* \"#utility.yul\":2768:3055   */\n      pop\n        /* \"#utility.yul\":2553:3062   */\n      swap3\n      swap2\n      pop\n      pop\n      jump\t// out\n        /* \"#utility.yul\":3068:3145   */\n    tag_78:\n        /* \"#utility.yul\":3105:3112   */\n      0x00\n        /* \"#utility.yul\":3134:3139   */\n      dup2\n        /* \"#utility.yul\":3123:3139   */\n      swap1\n      pop\n        /* \"#utility.yul\":3068:3145   */\n      swap2\n      swap1\n      pop\n      jump\t// out\n        /* \"#utility.yul\":3151:3269   */\n    tag_79:\n        /* \"#utility.yul\":3238:3262   */\n      tag_132\n        /* \"#utility.yul\":3256:3261   */\n      dup2\n        /* \"#utility.yul\":3238:3262   */\n      tag_78\n      jump\t// in\n    tag_132:\n        /* \"#utility.yul\":3233:3236   */\n      dup3\n        /* \"#utility.yul\":3226:3263   */\n      mstore\n        /* \"#utility.yul\":3151:3269   */\n      pop\n      pop\n      jump\t// out\n        /* \"#utility.yul\":3275:3497   */\n    tag_13:\n        /* \"#utility.yul\":3368:3372   */\n      0x00\n        /* \"#utility.yul\":3406:3408   */\n      0x20\n        /* \"#utility.yul\":3395:3404   */\n      dup3\n        /* \"#utility.yul\":3391:3409   */\n      add\n        /* \"#utility.yul\":3383:3409   */\n      swap1\n      pop\n        /* \"#utility.yul\":3419:3490   */\n      tag_134\n        /* \"#utility.yul\":3487:3488   */\n      0x00\n        /* \"#utility.yul\":3476:3485   */\n      dup4\n        /* \"#utility.yul\":3472:3489   */\n      add\n        /* \"#utility.yul\":3463:3469   */\n      dup5\n        /* \"#utility.yul\":3419:3490   */\n      tag_79\n      jump\t// in\n    tag_134:\n        /* \"#utility.yul\":3275:3497   */\n      swap3\n      swap2\n      pop\n      pop\n      jump\t// out\n        /* \"#utility.yul\":3503:3593   */\n    tag_80:\n        /* \"#utility.yul\":3537:3544   */\n      0x00\n        /* \"#utility.yul\":3580:3585   */\n      dup2\n        /* \"#utility.yul\":3573:3586   */\n      iszero\n        /* \"#utility.yul\":3566:3587   */\n      iszero\n        /* \"#utility.yul\":3555:3587   */\n      swap1\n      pop\n        /* \"#utility.yul\":3503:3593   */\n      swap2\n      swap1\n      pop\n      jump\t// out\n        /* \"#utility.yul\":3599:3708   */\n    tag_81:\n        /* \"#utility.yul\":3680:3701   */\n      tag_137\n        /* \"#utility.yul\":3695:3700   */\n      dup2\n        /* \"#utility.yul\":3680:3701   */\n      tag_80\n      jump\t// in\n    tag_137:\n        /* \"#utility.yul\":3675:3678   */\n      dup3\n        /* \"#utility.yul\":3668:3702   */\n      mstore\n        /* \"#utility.yul\":3599:3708   */\n      pop\n      pop\n      jump\t// out\n        /* \"#utility.yul\":3714:3924   */\n    tag_18:\n        /* \"#utility.yul\":3801:3805   */\n      0x00\n        /* \"#utility.yul\":3839:3841   */\n      0x20\n        /* \"#utility.yul\":3828:3837   */\n      dup3\n        /* \"#utility.yul\":3824:3842   */\n      add\n        /* \"#utility.yul\":3816:3842   */\n      swap1\n      pop\n        /* \"#utility.yul\":3852:3917   */\n      tag_139\n        /* \"#utility.yul\":3914:3915   */\n      0x00\n        /* \"#utility.yul\":3903:3912   */\n      dup4\n        /* \"#utility.yul\":3899:3916   */\n      add\n        /* \"#utility.yul\":3890:3896   */\n      dup5\n        /* \"#utility.yul\":3852:3917   */\n      tag_81\n      jump\t// in\n    tag_139:\n        /* \"#utility.yul\":3714:3924   */\n      swap3\n      swap2\n      pop\n      pop\n      jump\t// out\n        /* \"#utility.yul\":3930:4052   */\n    tag_82:\n        /* \"#utility.yul\":4003:4027   */\n      tag_141\n        /* \"#utility.yul\":4021:4026   */\n      dup2\n        /* \"#utility.yul\":4003:4027   */\n      tag_78\n      jump\t// in\n    tag_141:\n        /* \"#utility.yul\":3996:4001   */\n      dup2\n        /* \"#utility.yul\":3993:4028   */\n      eq\n        /* \"#utility.yul\":3983:4046   */\n      tag_142\n      jumpi\n        /* \"#utility.yul\":4042:4043   */\n      0x00\n        /* \"#utility.yul\":4039:4040   */\n      dup1\n        /* \"#utility.yul\":4032:4044   */\n      revert\n        /* \"#utility.yul\":3983:4046   */\n    tag_142:\n        /* \"#utility.yul\":3930:4052   */\n      pop\n      jump\t// out\n        /* \"#utility.yul\":4058:4197   */\n    tag_83:\n        /* \"#utility.yul\":4104:4109   */\n      0x00\n        /* \"#utility.yul\":4142:4148   */\n      dup2\n        /* \"#utility.yul\":4129:4149   */\n      calldataload\n        /* \"#utility.yul\":4120:4149   */\n      swap1\n      pop\n        /* \"#utility.yul\":4158:4191   */\n      tag_144\n        /* \"#utility.yul\":4185:4190   */\n      dup2\n        /* \"#utility.yul\":4158:4191   */\n      tag_82\n      jump\t// in\n    tag_144:\n        /* \"#utility.yul\":4058:4197   */\n      swap3\n      swap2\n      pop\n      pop\n      jump\t// out\n        /* \"#utility.yul\":4203:4532   */\n    tag_25:\n        /* \"#utility.yul\":4262:4268   */\n      0x00\n        /* \"#utility.yul\":4311:4313   */\n      0x20\n        /* \"#utility.yul\":4299:4308   */\n      dup3\n        /* \"#utility.yul\":4290:4297   */\n      dup5\n        /* \"#utility.yul\":4286:4309   */\n      sub\n        /* \"#utility.yul\":4282:4314   */\n      slt\n        /* \"#utility.yul\":4279:4398   */\n      iszero\n      tag_146\n      jumpi\n        /* \"#utility.yul\":4317:4396   */\n      tag_147\n      tag_66\n      jump\t// in\n    tag_147:\n        /* \"#utility.yul\":4279:4398   */\n    tag_146:\n        /* \"#utility.yul\":4437:4438   */\n      0x00\n        /* \"#utility.yul\":4462:4515   */\n      tag_148\n        /* \"#utility.yul\":4507:4514   */\n      dup5\n        /* \"#utility.yul\":4498:4504   */\n      dup3\n        /* \"#utility.yul\":4487:4496   */\n      dup6\n        /* \"#utility.yul\":4483:4505   */\n      add\n        /* \"#utility.yul\":4462:4515   */\n      tag_83\n      jump\t// in\n    tag_148:\n        /* \"#utility.yul\":4452:4515   */\n      swap2\n      pop\n        /* \"#utility.yul\":4408:4525   */\n      pop\n        /* \"#utility.yul\":4203:4532   */\n      swap3\n      swap2\n      pop\n      pop\n      jump\t// out\n        /* \"#utility.yul\":4538:4637   */\n    tag_84:\n        /* \"#utility.yul\":4590:4596   */\n      0x00\n        /* \"#utility.yul\":4624:4629   */\n      dup2\n        /* \"#utility.yul\":4618:4630   */\n      mload\n        /* \"#utility.yul\":4608:4630   */\n      swap1\n      pop\n        /* \"#utility.yul\":4538:4637   */\n      swap2\n      swap1\n      pop\n      jump\t// out\n        /* \"#utility.yul\":4643:4812   */\n    tag_85:\n        /* \"#utility.yul\":4727:4738   */\n      0x00\n        /* \"#utility.yul\":4761:4767   */\n      dup3\n        /* \"#utility.yul\":4756:4759   */\n      dup3\n        /* \"#utility.yul\":4749:4768   */\n      mstore\n        /* \"#utility.yul\":4801:4805   */\n      0x20\n        /* \"#utility.yul\":4796:4799   */\n      dup3\n        /* \"#utility.yul\":4792:4806   */\n      add\n        /* \"#utility.yul\":4777:4806   */\n      swap1\n      pop\n        /* \"#utility.yul\":4643:4812   */\n      swap3\n      swap2\n      pop\n      pop\n      jump\t// out\n        /* \"#utility.yul\":4818:5064   */\n    tag_86:\n        /* \"#utility.yul\":4899:4900   */\n      0x00\n        /* \"#utility.yul\":4909:5022   */\n    tag_152:\n        /* \"#utility.yul\":4923:4929   */\n      dup4\n        /* \"#utility.yul\":4920:4921   */\n      dup2\n        /* \"#utility.yul\":4917:4930   */\n      lt\n        /* \"#utility.yul\":4909:5022   */\n      iszero\n      tag_154\n      jumpi\n        /* \"#utility.yul\":5008:5009   */\n      dup1\n        /* \"#utility.yul\":5003:5006   */\n      dup3\n        /* \"#utility.yul\":4999:5010   */\n      add\n        /* \"#utility.yul\":4993:5011   */\n      mload\n        /* \"#utility.yul\":4989:4990   */\n      dup2\n        /* \"#utility.yul\":4984:4987   */\n      dup5\n        /* \"#utility.yul\":4980:4991   */\n      add\n        /* \"#utility.yul\":4973:5012   */\n      mstore\n        /* \"#utility.yul\":4945:4947   */\n      0x20\n        /* \"#utility.yul\":4942:4943   */\n      dup2\n        /* \"#utility.yul\":4938:4948   */\n      add\n        /* \"#utility.yul\":4933:4948   */\n      swap1\n      pop\n        /* \"#utility.yul\":4909:5022   */\n      jump(tag_152)\n    tag_154:\n        /* \"#utility.yul\":5056:5057   */\n      0x00\n        /* \"#utility.yul\":5047:5053   */\n      dup5\n        /* \"#utility.yul\":5042:5045   */\n      dup5\n        /* \"#utility.yul\":5038:5054   */\n      add\n        /* \"#utility.yul\":5031:5058   */\n      mstore\n        /* \"#utility.yul\":4880:5064   */\n      pop\n        /* \"#utility.yul\":4818:5064   */\n      pop\n      pop\n      pop\n      jump\t// out\n        /* \"#utility.yul\":5070:5447   */\n    tag_87:\n        /* \"#utility.yul\":5158:5161   */\n      0x00\n        /* \"#utility.yul\":5186:5225   */\n      tag_156\n        /* \"#utility.yul\":5219:5224   */\n      dup3\n        /* \"#utility.yul\":5186:5225   */\n      tag_84\n      jump\t// in\n    tag_156:\n        /* \"#utility.yul\":5241:5312   */\n      tag_157\n        /* \"#utility.yul\":5305:5311   */\n      dup2\n        /* \"#utility.yul\":5300:5303   */\n      dup6\n        /* \"#utility.yul\":5241:5312   */\n      tag_85\n      jump\t// in\n    tag_157:\n        /* \"#utility.yul\":5234:5312   */\n      swap4\n      pop\n        /* \"#utility.yul\":5321:5386   */\n      tag_158\n        /* \"#utility.yul\":5379:5385   */\n      dup2\n        /* \"#utility.yul\":5374:5377   */\n      dup6\n        /* \"#utility.yul\":5367:5371   */\n      0x20\n        /* \"#utility.yul\":5360:5365   */\n      dup7\n        /* \"#utility.yul\":5356:5372   */\n      add\n        /* \"#utility.yul\":5321:5386   */\n      tag_86\n      jump\t// in\n    tag_158:\n        /* \"#utility.yul\":5411:5440   */\n      tag_159\n        /* \"#utility.yul\":5433:5439   */\n      dup2\n        /* \"#utility.yul\":5411:5440   */\n      tag_70\n      jump\t// in\n    tag_159:\n        /* \"#utility.yul\":5406:5409   */\n      dup5\n        /* \"#utility.yul\":5402:5441   */\n      add\n        /* \"#utility.yul\":5395:5441   */\n      swap2\n      pop\n        /* \"#utility.yul\":5162:5447   */\n      pop\n        /* \"#utility.yul\":5070:5447   */\n      swap3\n      swap2\n      pop\n      pop\n      jump\t// out\n        /* \"#utility.yul\":5453:5766   */\n    tag_28:\n        /* \"#utility.yul\":5566:5570   */\n      0x00\n        /* \"#utility.yul\":5604:5606   */\n      0x20\n        /* \"#utility.yul\":5593:5602   */\n      dup3\n        /* \"#utility.yul\":5589:5607   */\n      add\n        /* \"#utility.yul\":5581:5607   */\n      swap1\n      pop\n        /* \"#utility.yul\":5653:5662   */\n      dup2\n        /* \"#utility.yul\":5647:5651   */\n      dup2\n        /* \"#utility.yul\":5643:5663   */\n      sub\n        /* \"#utility.yul\":5639:5640   */\n      0x00\n        /* \"#utility.yul\":5628:5637   */\n      dup4\n        /* \"#utility.yul\":5624:5641   */\n      add\n        /* \"#utility.yul\":5617:5664   */\n      mstore\n        /* \"#utility.yul\":5681:5759   */\n      tag_161\n        /* \"#utility.yul\":5754:5758   */\n      dup2\n        /* \"#utility.yul\":5745:5751   */\n      dup5\n        /* \"#utility.yul\":5681:5759   */\n      tag_87\n      jump\t// in\n    tag_161:\n        /* \"#utility.yul\":5673:5759   */\n      swap1\n      pop\n        /* \"#utility.yul\":5453:5766   */\n      swap3\n      swap2\n      pop\n      pop\n      jump\t// out\n        /* \"#utility.yul\":5772:5920   */\n    tag_88:\n        /* \"#utility.yul\":5874:5885   */\n      0x00\n        /* \"#utility.yul\":5911:5914   */\n      dup2\n        /* \"#utility.yul\":5896:5914   */\n      swap1\n      pop\n        /* \"#utility.yul\":5772:5920   */\n      swap3\n      swap2\n      pop\n      pop\n      jump\t// out\n        /* \"#utility.yul\":5926:6316   */\n    tag_89:\n        /* \"#utility.yul\":6032:6035   */\n      0x00\n        /* \"#utility.yul\":6060:6099   */\n      tag_164\n        /* \"#utility.yul\":6093:6098   */\n      dup3\n        /* \"#utility.yul\":6060:6099   */\n      tag_84\n      jump\t// in\n    tag_164:\n        /* \"#utility.yul\":6115:6204   */\n      tag_165\n        /* \"#utility.yul\":6197:6203   */\n      dup2\n        /* \"#utility.yul\":6192:6195   */\n      dup6\n        /* \"#utility.yul\":6115:6204   */\n      tag_88\n      jump\t// in\n    tag_165:\n        /* \"#utility.yul\":6108:6204   */\n      swap4\n      pop\n        /* \"#utility.yul\":6213:6278   */\n      tag_166\n        /* \"#utility.yul\":6271:6277   */\n      dup2\n        /* \"#utility.yul\":6266:6269   */\n      dup6\n        /* \"#utility.yul\":6259:6263   */\n      0x20\n        /* \"#utility.yul\":6252:6257   */\n      dup7\n        /* \"#utility.yul\":6248:6264   */\n      add\n        /* \"#utility.yul\":6213:6278   */\n      tag_86\n      jump\t// in\n    tag_166:\n        /* \"#utility.yul\":6303:6309   */\n      dup1\n        /* \"#utility.yul\":6298:6301   */\n      dup5\n        /* \"#utility.yul\":6294:6310   */\n      add\n        /* \"#utility.yul\":6287:6310   */\n      swap2\n      pop\n        /* \"#utility.yul\":6036:6316   */\n      pop\n        /* \"#utility.yul\":5926:6316   */\n      swap3\n      swap2\n      pop\n      pop\n      jump\t// out\n        /* \"#utility.yul\":6322:6597   */\n    tag_36:\n        /* \"#utility.yul\":6454:6457   */\n      0x00\n        /* \"#utility.yul\":6476:6571   */\n      tag_168\n        /* \"#utility.yul\":6567:6570   */\n      dup3\n        /* \"#utility.yul\":6558:6564   */\n      dup5\n        /* \"#utility.yul\":6476:6571   */\n      tag_89\n      jump\t// in\n    tag_168:\n        /* \"#utility.yul\":6469:6571   */\n      swap2\n      pop\n        /* \"#utility.yul\":6588:6591   */\n      dup2\n        /* \"#utility.yul\":6581:6591   */\n      swap1\n      pop\n        /* \"#utility.yul\":6322:6597   */\n      swap3\n      swap2\n      pop\n      pop\n      jump\t// out\n        /* \"#utility.yul\":6603:6783   */\n    tag_44:\n        /* \"#utility.yul\":6651:6728   */\n      0x4e487b7100000000000000000000000000000000000000000000000000000000\n        /* \"#utility.yul\":6648:6649   */\n      0x00\n        /* \"#utility.yul\":6641:6729   */\n      mstore\n        /* \"#utility.yul\":6748:6752   */\n      0x32\n        /* \"#utility.yul\":6745:6746   */\n      0x04\n        /* \"#utility.yul\":6738:6753   */\n      mstore\n        /* \"#utility.yul\":6772:6776   */\n      0x24\n        /* \"#utility.yul\":6769:6770   */\n      0x00\n        /* \"#utility.yul\":6762:6777   */\n      revert\n        /* \"#utility.yul\":6789:6969   */\n    tag_90:\n        /* \"#utility.yul\":6837:6914   */\n      0x4e487b7100000000000000000000000000000000000000000000000000000000\n        /* \"#utility.yul\":6834:6835   */\n      0x00\n        /* \"#utility.yul\":6827:6915   */\n      mstore\n        /* \"#utility.yul\":6934:6938   */\n      0x22\n        /* \"#utility.yul\":6931:6932   */\n      0x04\n        /* \"#utility.yul\":6924:6939   */\n      mstore\n        /* \"#utility.yul\":6958:6962   */\n      0x24\n        /* \"#utility.yul\":6955:6956   */\n      0x00\n        /* \"#utility.yul\":6948:6963   */\n      revert\n        /* \"#utility.yul\":6975:7295   */\n    tag_54:\n        /* \"#utility.yul\":7019:7025   */\n      0x00\n        /* \"#utility.yul\":7056:7057   */\n      0x02\n        /* \"#utility.yul\":7050:7054   */\n      dup3\n        /* \"#utility.yul\":7046:7058   */\n      div\n        /* \"#utility.yul\":7036:7058   */\n      swap1\n      pop\n        /* \"#utility.yul\":7103:7104   */\n      0x01\n        /* \"#utility.yul\":7097:7101   */\n      dup3\n        /* \"#utility.yul\":7093:7105   */\n      and\n        /* \"#utility.yul\":7124:7142   */\n      dup1\n        /* \"#utility.yul\":7114:7195   */\n      tag_172\n      jumpi\n        /* \"#utility.yul\":7180:7184   */\n      0x7f\n        /* \"#utility.yul\":7172:7178   */\n      dup3\n        /* \"#utility.yul\":7168:7185   */\n      and\n        /* \"#utility.yul\":7158:7185   */\n      swap2\n      pop\n        /* \"#utility.yul\":7114:7195   */\n    tag_172:\n        /* \"#utility.yul\":7242:7244   */\n      0x20\n        /* \"#utility.yul\":7234:7240   */\n      dup3\n        /* \"#utility.yul\":7231:7245   */\n      lt\n        /* \"#utility.yul\":7211:7229   */\n      dup2\n        /* \"#utility.yul\":7208:7246   */\n      sub\n        /* \"#utility.yul\":7205:7289   */\n      tag_173\n      jumpi\n        /* \"#utility.yul\":7261:7279   */\n      tag_174\n      tag_90\n      jump\t// in\n    tag_174:\n        /* \"#utility.yul\":7205:7289   */\n    tag_173:\n        /* \"#utility.yul\":7026:7295   */\n      pop\n        /* \"#utility.yul\":6975:7295   */\n      swap2\n      swap1\n      pop\n      jump\t// out\n        /* \"#utility.yul\":7301:7442   */\n    tag_91:\n        /* \"#utility.yul\":7350:7354   */\n      0x00\n        /* \"#utility.yul\":7373:7376   */\n      dup2\n        /* \"#utility.yul\":7365:7376   */\n      swap1\n      pop\n        /* \"#utility.yul\":7396:7399   */\n      dup2\n        /* \"#utility.yul\":7393:7394   */\n      0x00\n        /* \"#utility.yul\":7386:7400   */\n      mstore\n        /* \"#utility.yul\":7430:7434   */\n      0x20\n        /* \"#utility.yul\":7427:7428   */\n      0x00\n        /* \"#utility.yul\":7417:7435   */\n      keccak256\n        /* \"#utility.yul\":7409:7435   */\n      swap1\n      pop\n        /* \"#utility.yul\":7301:7442   */\n      swap2\n      swap1\n      pop\n      jump\t// out\n        /* \"#utility.yul\":7472:8346   */\n    tag_92:\n        /* \"#utility.yul\":7575:7578   */\n      0x00\n        /* \"#utility.yul\":7612:7617   */\n      dup2\n        /* \"#utility.yul\":7606:7618   */\n      sload\n        /* \"#utility.yul\":7641:7677   */\n      tag_177\n        /* \"#utility.yul\":7667:7676   */\n      dup2\n        /* \"#utility.yul\":7641:7677   */\n      tag_54\n      jump\t// in\n    tag_177:\n        /* \"#utility.yul\":7693:7782   */\n      tag_178\n        /* \"#utility.yul\":7775:7781   */\n      dup2\n        /* \"#utility.yul\":7770:7773   */\n      dup7\n        /* \"#utility.yul\":7693:7782   */\n      tag_88\n      jump\t// in\n    tag_178:\n        /* \"#utility.yul\":7686:7782   */\n      swap5\n      pop\n        /* \"#utility.yul\":7813:7814   */\n      0x01\n        /* \"#utility.yul\":7802:7811   */\n      dup3\n        /* \"#utility.yul\":7798:7815   */\n      and\n        /* \"#utility.yul\":7829:7830   */\n      0x00\n        /* \"#utility.yul\":7824:7990   */\n      dup2\n      eq\n      tag_180\n      jumpi\n        /* \"#utility.yul\":8004:8005   */\n      0x01\n        /* \"#utility.yul\":7999:8340   */\n      dup2\n      eq\n      tag_181\n      jumpi\n        /* \"#utility.yul\":7791:8340   */\n      jump(tag_179)\n        /* \"#utility.yul\":7824:7990   */\n    tag_180:\n        /* \"#utility.yul\":7908:7912   */\n      0xff\n        /* \"#utility.yul\":7904:7913   */\n      not\n        /* \"#utility.yul\":7893:7902   */\n      dup4\n        /* \"#utility.yul\":7889:7914   */\n      and\n        /* \"#utility.yul\":7884:7887   */\n      dup7\n        /* \"#utility.yul\":7877:7915   */\n      mstore\n        /* \"#utility.yul\":7970:7976   */\n      dup2\n        /* \"#utility.yul\":7963:7977   */\n      iszero\n        /* \"#utility.yul\":7956:7978   */\n      iszero\n        /* \"#utility.yul\":7948:7954   */\n      dup3\n        /* \"#utility.yul\":7944:7979   */\n      mul\n        /* \"#utility.yul\":7939:7942   */\n      dup7\n        /* \"#utility.yul\":7935:7980   */\n      add\n        /* \"#utility.yul\":7928:7980   */\n      swap4\n      pop\n        /* \"#utility.yul\":7824:7990   */\n      jump(tag_179)\n        /* \"#utility.yul\":7999:8340   */\n    tag_181:\n        /* \"#utility.yul\":8066:8104   */\n      tag_182\n        /* \"#utility.yul\":8098:8103   */\n      dup6\n        /* \"#utility.yul\":8066:8104   */\n      tag_91\n      jump\t// in\n    tag_182:\n        /* \"#utility.yul\":8126:8127   */\n      0x00\n        /* \"#utility.yul\":8140:8294   */\n    tag_183:\n        /* \"#utility.yul\":8154:8160   */\n      dup4\n        /* \"#utility.yul\":8151:8152   */\n      dup2\n        /* \"#utility.yul\":8148:8161   */\n      lt\n        /* \"#utility.yul\":8140:8294   */\n      iszero\n      tag_185\n      jumpi\n        /* \"#utility.yul\":8228:8235   */\n      dup2\n        /* \"#utility.yul\":8222:8236   */\n      sload\n        /* \"#utility.yul\":8218:8219   */\n      dup2\n        /* \"#utility.yul\":8213:8216   */\n      dup10\n        /* \"#utility.yul\":8209:8220   */\n      add\n        /* \"#utility.yul\":8202:8237   */\n      mstore\n        /* \"#utility.yul\":8278:8279   */\n      0x01\n        /* \"#utility.yul\":8269:8276   */\n      dup3\n        /* \"#utility.yul\":8265:8280   */\n      add\n        /* \"#utility.yul\":8254:8280   */\n      swap2\n      pop\n        /* \"#utility.yul\":8176:8180   */\n      0x20\n        /* \"#utility.yul\":8173:8174   */\n      dup2\n        /* \"#utility.yul\":8169:8181   */\n      add\n        /* \"#utility.yul\":8164:8181   */\n      swap1\n      pop\n        /* \"#utility.yul\":8140:8294   */\n      jump(tag_183)\n    tag_185:\n        /* \"#utility.yul\":8323:8329   */\n      dup4\n        /* \"#utility.yul\":8318:8321   */\n      dup9\n        /* \"#utility.yul\":8314:8330   */\n      add\n        /* \"#utility.yul\":8307:8330   */\n      swap6\n      pop\n        /* \"#utility.yul\":8006:8340   */\n      pop\n      pop\n        /* \"#utility.yul\":7791:8340   */\n    tag_179:\n      pop\n        /* \"#utility.yul\":7579:8346   */\n      pop\n      pop\n        /* \"#utility.yul\":7472:8346   */\n      swap3\n      swap2\n      pop\n      pop\n      jump\t// out\n        /* \"#utility.yul\":8352:8621   */\n    tag_47:\n        /* \"#utility.yul\":8481:8484   */\n      0x00\n        /* \"#utility.yul\":8503:8595   */\n      tag_187\n        /* \"#utility.yul\":8591:8594   */\n      dup3\n        /* \"#utility.yul\":8582:8588   */\n      dup5\n        /* \"#utility.yul\":8503:8595   */\n      tag_92\n      jump\t// in\n    tag_187:\n        /* \"#utility.yul\":8496:8595   */\n      swap2\n      pop\n        /* \"#utility.yul\":8612:8615   */\n      dup2\n        /* \"#utility.yul\":8605:8615   */\n      swap1\n      pop\n        /* \"#utility.yul\":8352:8621   */\n      swap3\n      swap2\n      pop\n      pop\n      jump\t// out\n        /* \"#utility.yul\":8627:8807   */\n    tag_93:\n        /* \"#utility.yul\":8675:8752   */\n      0x4e487b7100000000000000000000000000000000000000000000000000000000\n        /* \"#utility.yul\":8672:8673   */\n      0x00\n        /* \"#utility.yul\":8665:8753   */\n      mstore\n        /* \"#utility.yul\":8772:8776   */\n      0x11\n        /* \"#utility.yul\":8769:8770   */\n      0x04\n        /* \"#utility.yul\":8762:8777   */\n      mstore\n        /* \"#utility.yul\":8796:8800   */\n      0x24\n        /* \"#utility.yul\":8793:8794   */\n      0x00\n        /* \"#utility.yul\":8786:8801   */\n      revert\n        /* \"#utility.yul\":8813:9046   */\n    tag_50:\n        /* \"#utility.yul\":8852:8855   */\n      0x00\n        /* \"#utility.yul\":8875:8899   */\n      tag_190\n        /* \"#utility.yul\":8893:8898   */\n      dup3\n        /* \"#utility.yul\":8875:8899   */\n      tag_78\n      jump\t// in\n    tag_190:\n        /* \"#utility.yul\":8866:8899   */\n      swap2\n      pop\n        /* \"#utility.yul\":8921:8987   */\n      0xffffffffffffffffffffffffffffffffffffffffffffffffffffffffffffffff\n        /* \"#utility.yul\":8914:8919   */\n      dup3\n        /* \"#utility.yul\":8911:8988   */\n      sub\n        /* \"#utility.yul\":8908:9011   */\n      tag_191\n      jumpi\n        /* \"#utility.yul\":8991:9009   */\n      tag_192\n      tag_93\n      jump\t// in\n    tag_192:\n        /* \"#utility.yul\":8908:9011   */\n    tag_191:\n        /* \"#utility.yul\":9038:9039   */\n      0x01\n        /* \"#utility.yul\":9031:9036   */\n      dup3\n        /* \"#utility.yul\":9027:9040   */\n      add\n        /* \"#utility.yul\":9020:9040   */\n      swap1\n      pop\n        /* \"#utility.yul\":8813:9046   */\n      swap2\n      swap1\n      pop\n      jump\t// out\n        /* \"#utility.yul\":9052:9243   */\n    tag_64:\n        /* \"#utility.yul\":9092:9095   */\n      0x00\n        /* \"#utility.yul\":9111:9131   */\n      tag_194\n        /* \"#utility.yul\":9129:9130   */\n      dup3\n        /* \"#utility.yul\":9111:9131   */\n      tag_78\n      jump\t// in\n    tag_194:\n        /* \"#utility.yul\":9106:9131   */\n      swap2\n      pop\n        /* \"#utility.yul\":9145:9165   */\n      tag_195\n        /* \"#utility.yul\":9163:9164   */\n      dup4\n        /* \"#utility.yul\":9145:9165   */\n      tag_78\n      jump\t// in\n    tag_195:\n        /* \"#utility.yul\":9140:9165   */\n      swap3\n      pop\n        /* \"#utility.yul\":9188:9189   */\n      dup3\n        /* \"#utility.yul\":9185:9186   */\n      dup3\n        /* \"#utility.yul\":9181:9190   */\n      add\n        /* \"#utility.yul\":9174:9190   */\n      swap1\n      pop\n        /* \"#utility.yul\":9209:9212   */\n      dup1\n        /* \"#utility.yul\":9206:9207   */\n      dup3\n        /* \"#utility.yul\":9203:9213   */\n      gt\n        /* \"#utility.yul\":9200:9236   */\n      iszero\n      tag_196\n      jumpi\n        /* \"#utility.yul\":9216:9234   */\n      tag_197\n      tag_93\n      jump\t// in\n    tag_197:\n        /* \"#utility.yul\":9200:9236   */\n    tag_196:\n        /* \"#utility.yul\":9052:9243   */\n      swap3\n      swap2\n      pop\n      pop\n      jump\t// out\n\n    auxdata: 0xa26469706673582212207c07cdfa76ab766a2cb3d85ae95a8d5e3dc4e99226f0da0efb1a8f9337a3937264736f6c63430008100033\n}\n",
				"bytecode": {
					"linkReferences": {},
					"object": "60806040523480156200001157600080fd5b5060405162001023380380620010238339818101604052810190620000379190620003d3565b80600190805190602001906200004f92919062000057565b505062000756565b828054828255906000526020600020908101928215620000a4579160200282015b82811115620000a35782518290816200009291906200066f565b509160200191906001019062000078565b5b509050620000b39190620000b7565b5090565b5b80821115620000db5760008181620000d19190620000df565b50600101620000b8565b5090565b508054620000ed906200045e565b6000825580601f1062000101575062000122565b601f01602090049060005260206000209081019062000121919062000125565b5b50565b5b808211156200014057600081600090555060010162000126565b5090565b6000604051905090565b600080fd5b600080fd5b600080fd5b6000601f19601f8301169050919050565b7f4e487b7100000000000000000000000000000000000000000000000000000000600052604160045260246000fd5b620001a8826200015d565b810181811067ffffffffffffffff82111715620001ca57620001c96200016e565b5b80604052505050565b6000620001df62000144565b9050620001ed82826200019d565b919050565b600067ffffffffffffffff82111562000210576200020f6200016e565b5b602082029050602081019050919050565b600080fd5b600080fd5b600067ffffffffffffffff8211156200024957620002486200016e565b5b62000254826200015d565b9050602081019050919050565b60005b838110156200028157808201518184015260208101905062000264565b60008484015250505050565b6000620002a46200029e846200022b565b620001d3565b905082815260208101848484011115620002c357620002c262000226565b5b620002d084828562000261565b509392505050565b600082601f830112620002f057620002ef62000158565b5b8151620003028482602086016200028d565b91505092915050565b6000620003226200031c84620001f2565b620001d3565b9050808382526020820190506020840283018581111562000348576200034762000221565b5b835b818110156200039657805167ffffffffffffffff81111562000371576200037062000158565b5b808601620003808982620002d8565b855260208501945050506020810190506200034a565b5050509392505050565b600082601f830112620003b857620003b762000158565b5b8151620003ca8482602086016200030b565b91505092915050565b600060208284031215620003ec57620003eb6200014e565b5b600082015167ffffffffffffffff8111156200040d576200040c62000153565b5b6200041b84828501620003a0565b91505092915050565b600081519050919050565b7f4e487b7100000000000000000000000000000000000000000000000000000000600052602260045260246000fd5b600060028204905060018216806200047757607f821691505b6020821081036200048d576200048c6200042f565b5b50919050565b60008190508160005260206000209050919050565b60006020601f8301049050919050565b600082821b905092915050565b600060088302620004f77fffffffffffffffffffffffffffffffffffffffffffffffffffffffffffffffff82620004b8565b620005038683620004b8565b95508019841693508086168417925050509392505050565b6000819050919050565b6000819050919050565b6000620005506200054a62000544846200051b565b62000525565b6200051b565b9050919050565b6000819050919050565b6200056c836200052f565b620005846200057b8262000557565b848454620004c5565b825550505050565b600090565b6200059b6200058c565b620005a881848462000561565b505050565b5b81811015620005d057620005c460008262000591565b600181019050620005ae565b5050565b601f8211156200061f57620005e98162000493565b620005f484620004a8565b8101602085101562000604578190505b6200061c6200061385620004a8565b830182620005ad565b50505b505050565b600082821c905092915050565b6000620006446000198460080262000624565b1980831691505092915050565b60006200065f838362000631565b9150826002028217905092915050565b6200067a8262000424565b67ffffffffffffffff8111156200069657620006956200016e565b5b620006a282546200045e565b620006af828285620005d4565b600060209050601f831160018114620006e75760008415620006d2578287015190505b620006de858262000651565b8655506200074e565b601f198416620006f78662000493565b60005b828110156200072157848901518255600182019150602085019450602081019050620006fa565b868310156200074157848901516200073d601f89168262000631565b8355505b6001600288020188555050505b505050505050565b6108bd80620007666000396000f3fe608060405234801561001057600080fd5b50600436106100575760003560e01c80634a3bf3771461005c578063538c91b21461008c5780638d4b44d9146100bc578063b13c744b146100ec578063e89927ef1461011c575b600080fd5b6100766004803603810190610071919061049e565b610138565b6040516100839190610500565b60405180910390f35b6100a660048036038101906100a1919061049e565b610172565b6040516100b39190610536565b60405180910390f35b6100d660048036038101906100d1919061049e565b61021f565b6040516100e39190610500565b60405180910390f35b6101066004803603810190610101919061057d565b61024d565b6040516101139190610629565b60405180910390f35b6101366004803603810190610131919061049e565b6102f9565b005b600061014382610172565b61014c57600080fd5b60008260405161015c9190610687565b9081526020016040518091039020549050919050565b600080600090505b60018054905081101561021457826040516020016101989190610687565b60405160208183030381529060405280519060200120600182815481106101c2576101c161069e565b5b906000526020600020016040516020016101dc91906107c5565b604051602081830303815290604052805190602001200361020157600191505061021a565b808061020c9061080b565b91505061017a565b50600090505b919050565b6000818051602081018201805184825260208301602085012081835280955050505050506000915090505481565b6001818154811061025d57600080fd5b906000526020600020016000915090508054610278906106fc565b80601f01602080910402602001604051908101604052809291908181526020018280546102a4906106fc565b80156102f15780601f106102c6576101008083540402835291602001916102f1565b820191906000526020600020905b8154815290600101906020018083116102d457829003601f168201915b505050505081565b61030281610172565b61030b57600080fd5b600160008260405161031d9190610687565b9081526020016040518091039020600082825461033a9190610853565b9250508190555050565b6000604051905090565b600080fd5b600080fd5b600080fd5b600080fd5b6000601f19601f8301169050919050565b7f4e487b7100000000000000000000000000000000000000000000000000000000600052604160045260246000fd5b6103ab82610362565b810181811067ffffffffffffffff821117156103ca576103c9610373565b5b80604052505050565b60006103dd610344565b90506103e982826103a2565b919050565b600067ffffffffffffffff82111561040957610408610373565b5b61041282610362565b9050602081019050919050565b82818337600083830152505050565b600061044161043c846103ee565b6103d3565b90508281526020810184848401111561045d5761045c61035d565b5b61046884828561041f565b509392505050565b600082601f83011261048557610484610358565b5b813561049584826020860161042e565b91505092915050565b6000602082840312156104b4576104b361034e565b5b600082013567ffffffffffffffff8111156104d2576104d1610353565b5b6104de84828501610470565b91505092915050565b6000819050919050565b6104fa816104e7565b82525050565b600060208201905061051560008301846104f1565b92915050565b60008115159050919050565b6105308161051b565b82525050565b600060208201905061054b6000830184610527565b92915050565b61055a816104e7565b811461056557600080fd5b50565b60008135905061057781610551565b92915050565b6000602082840312156105935761059261034e565b5b60006105a184828501610568565b91505092915050565b600081519050919050565b600082825260208201905092915050565b60005b838110156105e45780820151818401526020810190506105c9565b60008484015250505050565b60006105fb826105aa565b61060581856105b5565b93506106158185602086016105c6565b61061e81610362565b840191505092915050565b6000602082019050818103600083015261064381846105f0565b905092915050565b600081905092915050565b6000610661826105aa565b61066b818561064b565b935061067b8185602086016105c6565b80840191505092915050565b60006106938284610656565b915081905092915050565b7f4e487b7100000000000000000000000000000000000000000000000000000000600052603260045260246000fd5b7f4e487b7100000000000000000000000000000000000000000000000000000000600052602260045260246000fd5b6000600282049050600182168061071457607f821691505b602082108103610727576107266106cd565b5b50919050565b60008190508160005260206000209050919050565b6000815461074f816106fc565b610759818661064b565b945060018216600081146107745760018114610789576107bc565b60ff19831686528115158202860193506107bc565b6107928561072d565b60005b838110156107b457815481890152600182019150602081019050610795565b838801955050505b50505092915050565b60006107d18284610742565b915081905092915050565b7f4e487b7100000000000000000000000000000000000000000000000000000000600052601160045260246000fd5b6000610816826104e7565b91507fffffffffffffffffffffffffffffffffffffffffffffffffffffffffffffffff8203610848576108476107dc565b5b600182019050919050565b600061085e826104e7565b9150610869836104e7565b9250828201905080821115610881576108806107dc565b5b9291505056fea26469706673582212207c07cdfa76ab766a2cb3d85ae95a8d5e3dc4e99226f0da0efb1a8f9337a3937264736f6c63430008100033",
					"opcodes": "PUSH1 0x80 PUSH1 0x40 MSTORE CALLVALUE DUP1 ISZERO PUSH3 0x11 JUMPI PUSH1 0x0 DUP1 REVERT JUMPDEST POP PUSH1 0x40 MLOAD PUSH3 0x1023 CODESIZE SUB DUP1 PUSH3 0x1023 DUP4 CODECOPY DUP2 DUP2 ADD PUSH1 0x40 MSTORE DUP2 ADD SWAP1 PUSH3 0x37 SWAP2 SWAP1 PUSH3 0x3D3 JUMP JUMPDEST DUP1 PUSH1 0x1 SWAP1 DUP1 MLOAD SWAP1 PUSH1 0x20 ADD SWAP1 PUSH3 0x4F SWAP3 SWAP2 SWAP1 PUSH3 0x57 JUMP JUMPDEST POP POP PUSH3 0x756 JUMP JUMPDEST DUP3 DUP1 SLOAD DUP3 DUP3 SSTORE SWAP1 PUSH1 0x0 MSTORE PUSH1 0x20 PUSH1 0x0 KECCAK256 SWAP1 DUP2 ADD SWAP3 DUP3 ISZERO PUSH3 0xA4 JUMPI SWAP2 PUSH1 0x20 MUL DUP3 ADD JUMPDEST DUP3 DUP2 GT ISZERO PUSH3 0xA3 JUMPI DUP3 MLOAD DUP3 SWAP1 DUP2 PUSH3 0x92 SWAP2 SWAP1 PUSH3 0x66F JUMP JUMPDEST POP SWAP2 PUSH1 0x20 ADD SWAP2 SWAP1 PUSH1 0x1 ADD SWAP1 PUSH3 0x78 JUMP JUMPDEST JUMPDEST POP SWAP1 POP PUSH3 0xB3 SWAP2 SWAP1 PUSH3 0xB7 JUMP JUMPDEST POP SWAP1 JUMP JUMPDEST JUMPDEST DUP1 DUP3 GT ISZERO PUSH3 0xDB JUMPI PUSH1 0x0 DUP2 DUP2 PUSH3 0xD1 SWAP2 SWAP1 PUSH3 0xDF JUMP JUMPDEST POP PUSH1 0x1 ADD PUSH3 0xB8 JUMP JUMPDEST POP SWAP1 JUMP JUMPDEST POP DUP1 SLOAD PUSH3 0xED SWAP1 PUSH3 0x45E JUMP JUMPDEST PUSH1 0x0 DUP3 SSTORE DUP1 PUSH1 0x1F LT PUSH3 0x101 JUMPI POP PUSH3 0x122 JUMP JUMPDEST PUSH1 0x1F ADD PUSH1 0x20 SWAP1 DIV SWAP1 PUSH1 0x0 MSTORE PUSH1 0x20 PUSH1 0x0 KECCAK256 SWAP1 DUP2 ADD SWAP1 PUSH3 0x121 SWAP2 SWAP1 PUSH3 0x125 JUMP JUMPDEST JUMPDEST POP JUMP JUMPDEST JUMPDEST DUP1 DUP3 GT ISZERO PUSH3 0x140 JUMPI PUSH1 0x0 DUP2 PUSH1 0x0 SWAP1 SSTORE POP PUSH1 0x1 ADD PUSH3 0x126 JUMP JUMPDEST POP SWAP1 JUMP JUMPDEST PUSH1 0x0 PUSH1 0x40 MLOAD SWAP1 POP SWAP1 JUMP JUMPDEST PUSH1 0x0 DUP1 REVERT JUMPDEST PUSH1 0x0 DUP1 REVERT JUMPDEST PUSH1 0x0 DUP1 REVERT JUMPDEST PUSH1 0x0 PUSH1 0x1F NOT PUSH1 0x1F DUP4 ADD AND SWAP1 POP SWAP2 SWAP1 POP JUMP JUMPDEST PUSH32 0x4E487B7100000000000000000000000000000000000000000000000000000000 PUSH1 0x0 MSTORE PUSH1 0x41 PUSH1 0x4 MSTORE PUSH1 0x24 PUSH1 0x0 REVERT JUMPDEST PUSH3 0x1A8 DUP3 PUSH3 0x15D JUMP JUMPDEST DUP2 ADD DUP2 DUP2 LT PUSH8 0xFFFFFFFFFFFFFFFF DUP3 GT OR ISZERO PUSH3 0x1CA JUMPI PUSH3 0x1C9 PUSH3 0x16E JUMP JUMPDEST JUMPDEST DUP1 PUSH1 0x40 MSTORE POP POP POP JUMP JUMPDEST PUSH1 0x0 PUSH3 0x1DF PUSH3 0x144 JUMP JUMPDEST SWAP1 POP PUSH3 0x1ED DUP3 DUP3 PUSH3 0x19D JUMP JUMPDEST SWAP2 SWAP1 POP JUMP JUMPDEST PUSH1 0x0 PUSH8 0xFFFFFFFFFFFFFFFF DUP3 GT ISZERO PUSH3 0x210 JUMPI PUSH3 0x20F PUSH3 0x16E JUMP JUMPDEST JUMPDEST PUSH1 0x20 DUP3 MUL SWAP1 POP PUSH1 0x20 DUP2 ADD SWAP1 POP SWAP2 SWAP1 POP JUMP JUMPDEST PUSH1 0x0 DUP1 REVERT JUMPDEST PUSH1 0x0 DUP1 REVERT JUMPDEST PUSH1 0x0 PUSH8 0xFFFFFFFFFFFFFFFF DUP3 GT ISZERO PUSH3 0x249 JUMPI PUSH3 0x248 PUSH3 0x16E JUMP JUMPDEST JUMPDEST PUSH3 0x254 DUP3 PUSH3 0x15D JUMP JUMPDEST SWAP1 POP PUSH1 0x20 DUP2 ADD SWAP1 POP SWAP2 SWAP1 POP JUMP JUMPDEST PUSH1 0x0 JUMPDEST DUP4 DUP2 LT ISZERO PUSH3 0x281 JUMPI DUP1 DUP3 ADD MLOAD DUP2 DUP5 ADD MSTORE PUSH1 0x20 DUP2 ADD SWAP1 POP PUSH3 0x264 JUMP JUMPDEST PUSH1 0x0 DUP5 DUP5 ADD MSTORE POP POP POP POP JUMP JUMPDEST PUSH1 0x0 PUSH3 0x2A4 PUSH3 0x29E DUP5 PUSH3 0x22B JUMP JUMPDEST PUSH3 0x1D3 JUMP JUMPDEST SWAP1 POP DUP3 DUP2 MSTORE PUSH1 0x20 DUP2 ADD DUP5 DUP5 DUP5 ADD GT ISZERO PUSH3 0x2C3 JUMPI PUSH3 0x2C2 PUSH3 0x226 JUMP JUMPDEST JUMPDEST PUSH3 0x2D0 DUP5 DUP3 DUP6 PUSH3 0x261 JUMP JUMPDEST POP SWAP4 SWAP3 POP POP POP JUMP JUMPDEST PUSH1 0x0 DUP3 PUSH1 0x1F DUP4 ADD SLT PUSH3 0x2F0 JUMPI PUSH3 0x2EF PUSH3 0x158 JUMP JUMPDEST JUMPDEST DUP2 MLOAD PUSH3 0x302 DUP5 DUP3 PUSH1 0x20 DUP7 ADD PUSH3 0x28D JUMP JUMPDEST SWAP2 POP POP SWAP3 SWAP2 POP POP JUMP JUMPDEST PUSH1 0x0 PUSH3 0x322 PUSH3 0x31C DUP5 PUSH3 0x1F2 JUMP JUMPDEST PUSH3 0x1D3 JUMP JUMPDEST SWAP1 POP DUP1 DUP4 DUP3 MSTORE PUSH1 0x20 DUP3 ADD SWAP1 POP PUSH1 0x20 DUP5 MUL DUP4 ADD DUP6 DUP2 GT ISZERO PUSH3 0x348 JUMPI PUSH3 0x347 PUSH3 0x221 JUMP JUMPDEST JUMPDEST DUP4 JUMPDEST DUP2 DUP2 LT ISZERO PUSH3 0x396 JUMPI DUP1 MLOAD PUSH8 0xFFFFFFFFFFFFFFFF DUP2 GT ISZERO PUSH3 0x371 JUMPI PUSH3 0x370 PUSH3 0x158 JUMP JUMPDEST JUMPDEST DUP1 DUP7 ADD PUSH3 0x380 DUP10 DUP3 PUSH3 0x2D8 JUMP JUMPDEST DUP6 MSTORE PUSH1 0x20 DUP6 ADD SWAP5 POP POP POP PUSH1 0x20 DUP2 ADD SWAP1 POP PUSH3 0x34A JUMP JUMPDEST POP POP POP SWAP4 SWAP3 POP POP POP JUMP JUMPDEST PUSH1 0x0 DUP3 PUSH1 0x1F DUP4 ADD SLT PUSH3 0x3B8 JUMPI PUSH3 0x3B7 PUSH3 0x158 JUMP JUMPDEST JUMPDEST DUP2 MLOAD PUSH3 0x3CA DUP5 DUP3 PUSH1 0x20 DUP7 ADD PUSH3 0x30B JUMP JUMPDEST SWAP2 POP POP SWAP3 SWAP2 POP POP JUMP JUMPDEST PUSH1 0x0 PUSH1 0x20 DUP3 DUP5 SUB SLT ISZERO PUSH3 0x3EC JUMPI PUSH3 0x3EB PUSH3 0x14E JUMP JUMPDEST JUMPDEST PUSH1 0x0 DUP3 ADD MLOAD PUSH8 0xFFFFFFFFFFFFFFFF DUP2 GT ISZERO PUSH3 0x40D JUMPI PUSH3 0x40C PUSH3 0x153 JUMP JUMPDEST JUMPDEST PUSH3 0x41B DUP5 DUP3 DUP6 ADD PUSH3 0x3A0 JUMP JUMPDEST SWAP2 POP POP SWAP3 SWAP2 POP POP JUMP JUMPDEST PUSH1 0x0 DUP2 MLOAD SWAP1 POP SWAP2 SWAP1 POP JUMP JUMPDEST PUSH32 0x4E487B7100000000000000000000000000000000000000000000000000000000 PUSH1 0x0 MSTORE PUSH1 0x22 PUSH1 0x4 MSTORE PUSH1 0x24 PUSH1 0x0 REVERT JUMPDEST PUSH1 0x0 PUSH1 0x2 DUP3 DIV SWAP1 POP PUSH1 0x1 DUP3 AND DUP1 PUSH3 0x477 JUMPI PUSH1 0x7F DUP3 AND SWAP2 POP JUMPDEST PUSH1 0x20 DUP3 LT DUP2 SUB PUSH3 0x48D JUMPI PUSH3 0x48C PUSH3 0x42F JUMP JUMPDEST JUMPDEST POP SWAP2 SWAP1 POP JUMP JUMPDEST PUSH1 0x0 DUP2 SWAP1 POP DUP2 PUSH1 0x0 MSTORE PUSH1 0x20 PUSH1 0x0 KECCAK256 SWAP1 POP SWAP2 SWAP1 POP JUMP JUMPDEST PUSH1 0x0 PUSH1 0x20 PUSH1 0x1F DUP4 ADD DIV SWAP1 POP SWAP2 SWAP1 POP JUMP JUMPDEST PUSH1 0x0 DUP3 DUP3 SHL SWAP1 POP SWAP3 SWAP2 POP POP JUMP JUMPDEST PUSH1 0x0 PUSH1 0x8 DUP4 MUL PUSH3 0x4F7 PUSH32 0xFFFFFFFFFFFFFFFFFFFFFFFFFFFFFFFFFFFFFFFFFFFFFFFFFFFFFFFFFFFFFFFF DUP3 PUSH3 0x4B8 JUMP JUMPDEST PUSH3 0x503 DUP7 DUP4 PUSH3 0x4B8 JUMP JUMPDEST SWAP6 POP DUP1 NOT DUP5 AND SWAP4 POP DUP1 DUP7 AND DUP5 OR SWAP3 POP POP POP SWAP4 SWAP3 POP POP POP JUMP JUMPDEST PUSH1 0x0 DUP2 SWAP1 POP SWAP2 SWAP1 POP JUMP JUMPDEST PUSH1 0x0 DUP2 SWAP1 POP SWAP2 SWAP1 POP JUMP JUMPDEST PUSH1 0x0 PUSH3 0x550 PUSH3 0x54A PUSH3 0x544 DUP5 PUSH3 0x51B JUMP JUMPDEST PUSH3 0x525 JUMP JUMPDEST PUSH3 0x51B JUMP JUMPDEST SWAP1 POP SWAP2 SWAP1 POP JUMP JUMPDEST PUSH1 0x0 DUP2 SWAP1 POP SWAP2 SWAP1 POP JUMP JUMPDEST PUSH3 0x56C DUP4 PUSH3 0x52F JUMP JUMPDEST PUSH3 0x584 PUSH3 0x57B DUP3 PUSH3 0x557 JUMP JUMPDEST DUP5 DUP5 SLOAD PUSH3 0x4C5 JUMP JUMPDEST DUP3 SSTORE POP POP POP POP JUMP JUMPDEST PUSH1 0x0 SWAP1 JUMP JUMPDEST PUSH3 0x59B PUSH3 0x58C JUMP JUMPDEST PUSH3 0x5A8 DUP2 DUP5 DUP5 PUSH3 0x561 JUMP JUMPDEST POP POP POP JUMP JUMPDEST JUMPDEST DUP2 DUP2 LT ISZERO PUSH3 0x5D0 JUMPI PUSH3 0x5C4 PUSH1 0x0 DUP3 PUSH3 0x591 JUMP JUMPDEST PUSH1 0x1 DUP2 ADD SWAP1 POP PUSH3 0x5AE JUMP JUMPDEST POP POP JUMP JUMPDEST PUSH1 0x1F DUP3 GT ISZERO PUSH3 0x61F JUMPI PUSH3 0x5E9 DUP2 PUSH3 0x493 JUMP JUMPDEST PUSH3 0x5F4 DUP5 PUSH3 0x4A8 JUMP JUMPDEST DUP2 ADD PUSH1 0x20 DUP6 LT ISZERO PUSH3 0x604 JUMPI DUP2 SWAP1 POP JUMPDEST PUSH3 0x61C PUSH3 0x613 DUP6 PUSH3 0x4A8 JUMP JUMPDEST DUP4 ADD DUP3 PUSH3 0x5AD JUMP JUMPDEST POP POP JUMPDEST POP POP POP JUMP JUMPDEST PUSH1 0x0 DUP3 DUP3 SHR SWAP1 POP SWAP3 SWAP2 POP POP JUMP JUMPDEST PUSH1 0x0 PUSH3 0x644 PUSH1 0x0 NOT DUP5 PUSH1 0x8 MUL PUSH3 0x624 JUMP JUMPDEST NOT DUP1 DUP4 AND SWAP2 POP POP SWAP3 SWAP2 POP POP JUMP JUMPDEST PUSH1 0x0 PUSH3 0x65F DUP4 DUP4 PUSH3 0x631 JUMP JUMPDEST SWAP2 POP DUP3 PUSH1 0x2 MUL DUP3 OR SWAP1 POP SWAP3 SWAP2 POP POP JUMP JUMPDEST PUSH3 0x67A DUP3 PUSH3 0x424 JUMP JUMPDEST PUSH8 0xFFFFFFFFFFFFFFFF DUP2 GT ISZERO PUSH3 0x696 JUMPI PUSH3 0x695 PUSH3 0x16E JUMP JUMPDEST JUMPDEST PUSH3 0x6A2 DUP3 SLOAD PUSH3 0x45E JUMP JUMPDEST PUSH3 0x6AF DUP3 DUP3 DUP6 PUSH3 0x5D4 JUMP JUMPDEST PUSH1 0x0 PUSH1 0x20 SWAP1 POP PUSH1 0x1F DUP4 GT PUSH1 0x1 DUP2 EQ PUSH3 0x6E7 JUMPI PUSH1 0x0 DUP5 ISZERO PUSH3 0x6D2 JUMPI DUP3 DUP8 ADD MLOAD SWAP1 POP JUMPDEST PUSH3 0x6DE DUP6 DUP3 PUSH3 0x651 JUMP JUMPDEST DUP7 SSTORE POP PUSH3 0x74E JUMP JUMPDEST PUSH1 0x1F NOT DUP5 AND PUSH3 0x6F7 DUP7 PUSH3 0x493 JUMP JUMPDEST PUSH1 0x0 JUMPDEST DUP3 DUP2 LT ISZERO PUSH3 0x721 JUMPI DUP5 DUP10 ADD MLOAD DUP3 SSTORE PUSH1 0x1 DUP3 ADD SWAP2 POP PUSH1 0x20 DUP6 ADD SWAP5 POP PUSH1 0x20 DUP2 ADD SWAP1 POP PUSH3 0x6FA JUMP JUMPDEST DUP7 DUP4 LT ISZERO PUSH3 0x741 JUMPI DUP5 DUP10 ADD MLOAD PUSH3 0x73D PUSH1 0x1F DUP10 AND DUP3 PUSH3 0x631 JUMP JUMPDEST DUP4 SSTORE POP JUMPDEST PUSH1 0x1 PUSH1 0x2 DUP9 MUL ADD DUP9 SSTORE POP POP POP JUMPDEST POP POP POP POP POP POP JUMP JUMPDEST PUSH2 0x8BD DUP1 PUSH3 0x766 PUSH1 0x0 CODECOPY PUSH1 0x0 RETURN INVALID PUSH1 0x80 PUSH1 0x40 MSTORE CALLVALUE DUP1 ISZERO PUSH2 0x10 JUMPI PUSH1 0x0 DUP1 REVERT JUMPDEST POP PUSH1 0x4 CALLDATASIZE LT PUSH2 0x57 JUMPI PUSH1 0x0 CALLDATALOAD PUSH1 0xE0 SHR DUP1 PUSH4 0x4A3BF377 EQ PUSH2 0x5C JUMPI DUP1 PUSH4 0x538C91B2 EQ PUSH2 0x8C JUMPI DUP1 PUSH4 0x8D4B44D9 EQ PUSH2 0xBC JUMPI DUP1 PUSH4 0xB13C744B EQ PUSH2 0xEC JUMPI DUP1 PUSH4 0xE89927EF EQ PUSH2 0x11C JUMPI JUMPDEST PUSH1 0x0 DUP1 REVERT JUMPDEST PUSH2 0x76 PUSH1 0x4 DUP1 CALLDATASIZE SUB DUP2 ADD SWAP1 PUSH2 0x71 SWAP2 SWAP1 PUSH2 0x49E JUMP JUMPDEST PUSH2 0x138 JUMP JUMPDEST PUSH1 0x40 MLOAD PUSH2 0x83 SWAP2 SWAP1 PUSH2 0x500 JUMP JUMPDEST PUSH1 0x40 MLOAD DUP1 SWAP2 SUB SWAP1 RETURN JUMPDEST PUSH2 0xA6 PUSH1 0x4 DUP1 CALLDATASIZE SUB DUP2 ADD SWAP1 PUSH2 0xA1 SWAP2 SWAP1 PUSH2 0x49E JUMP JUMPDEST PUSH2 0x172 JUMP JUMPDEST PUSH1 0x40 MLOAD PUSH2 0xB3 SWAP2 SWAP1 PUSH2 0x536 JUMP JUMPDEST PUSH1 0x40 MLOAD DUP1 SWAP2 SUB SWAP1 RETURN JUMPDEST PUSH2 0xD6 PUSH1 0x4 DUP1 CALLDATASIZE SUB DUP2 ADD SWAP1 PUSH2 0xD1 SWAP2 SWAP1 PUSH2 0x49E JUMP JUMPDEST PUSH2 0x21F JUMP JUMPDEST PUSH1 0x40 MLOAD PUSH2 0xE3 SWAP2 SWAP1 PUSH2 0x500 JUMP JUMPDEST PUSH1 0x40 MLOAD DUP1 SWAP2 SUB SWAP1 RETURN JUMPDEST PUSH2 0x106 PUSH1 0x4 DUP1 CALLDATASIZE SUB DUP2 ADD SWAP1 PUSH2 0x101 SWAP2 SWAP1 PUSH2 0x57D JUMP JUMPDEST PUSH2 0x24D JUMP JUMPDEST PUSH1 0x40 MLOAD PUSH2 0x113 SWAP2 SWAP1 PUSH2 0x629 JUMP JUMPDEST PUSH1 0x40 MLOAD DUP1 SWAP2 SUB SWAP1 RETURN JUMPDEST PUSH2 0x136 PUSH1 0x4 DUP1 CALLDATASIZE SUB DUP2 ADD SWAP1 PUSH2 0x131 SWAP2 SWAP1 PUSH2 0x49E JUMP JUMPDEST PUSH2 0x2F9 JUMP JUMPDEST STOP JUMPDEST PUSH1 0x0 PUSH2 0x143 DUP3 PUSH2 0x172 JUMP JUMPDEST PUSH2 0x14C JUMPI PUSH1 0x0 DUP1 REVERT JUMPDEST PUSH1 0x0 DUP3 PUSH1 0x40 MLOAD PUSH2 0x15C SWAP2 SWAP1 PUSH2 0x687 JUMP JUMPDEST SWAP1 DUP2 MSTORE PUSH1 0x20 ADD PUSH1 0x40 MLOAD DUP1 SWAP2 SUB SWAP1 KECCAK256 SLOAD SWAP1 POP SWAP2 SWAP1 POP JUMP JUMPDEST PUSH1 0x0 DUP1 PUSH1 0x0 SWAP1 POP JUMPDEST PUSH1 0x1 DUP1 SLOAD SWAP1 POP DUP2 LT ISZERO PUSH2 0x214 JUMPI DUP3 PUSH1 0x40 MLOAD PUSH1 0x20 ADD PUSH2 0x198 SWAP2 SWAP1 PUSH2 0x687 JUMP JUMPDEST PUSH1 0x40 MLOAD PUSH1 0x20 DUP2 DUP4 SUB SUB DUP2 MSTORE SWAP1 PUSH1 0x40 MSTORE DUP1 MLOAD SWAP1 PUSH1 0x20 ADD KECCAK256 PUSH1 0x1 DUP3 DUP2 SLOAD DUP2 LT PUSH2 0x1C2 JUMPI PUSH2 0x1C1 PUSH2 0x69E JUMP JUMPDEST JUMPDEST SWAP1 PUSH1 0x0 MSTORE PUSH1 0x20 PUSH1 0x0 KECCAK256 ADD PUSH1 0x40 MLOAD PUSH1 0x20 ADD PUSH2 0x1DC SWAP2 SWAP1 PUSH2 0x7C5 JUMP JUMPDEST PUSH1 0x40 MLOAD PUSH1 0x20 DUP2 DUP4 SUB SUB DUP2 MSTORE SWAP1 PUSH1 0x40 MSTORE DUP1 MLOAD SWAP1 PUSH1 0x20 ADD KECCAK256 SUB PUSH2 0x201 JUMPI PUSH1 0x1 SWAP2 POP POP PUSH2 0x21A JUMP JUMPDEST DUP1 DUP1 PUSH2 0x20C SWAP1 PUSH2 0x80B JUMP JUMPDEST SWAP2 POP POP PUSH2 0x17A JUMP JUMPDEST POP PUSH1 0x0 SWAP1 POP JUMPDEST SWAP2 SWAP1 POP JUMP JUMPDEST PUSH1 0x0 DUP2 DUP1 MLOAD PUSH1 0x20 DUP2 ADD DUP3 ADD DUP1 MLOAD DUP5 DUP3 MSTORE PUSH1 0x20 DUP4 ADD PUSH1 0x20 DUP6 ADD KECCAK256 DUP2 DUP4 MSTORE DUP1 SWAP6 POP POP POP POP POP POP PUSH1 0x0 SWAP2 POP SWAP1 POP SLOAD DUP2 JUMP JUMPDEST PUSH1 0x1 DUP2 DUP2 SLOAD DUP2 LT PUSH2 0x25D JUMPI PUSH1 0x0 DUP1 REVERT JUMPDEST SWAP1 PUSH1 0x0 MSTORE PUSH1 0x20 PUSH1 0x0 KECCAK256 ADD PUSH1 0x0 SWAP2 POP SWAP1 POP DUP1 SLOAD PUSH2 0x278 SWAP1 PUSH2 0x6FC JUMP JUMPDEST DUP1 PUSH1 0x1F ADD PUSH1 0x20 DUP1 SWAP2 DIV MUL PUSH1 0x20 ADD PUSH1 0x40 MLOAD SWAP1 DUP2 ADD PUSH1 0x40 MSTORE DUP1 SWAP3 SWAP2 SWAP1 DUP2 DUP2 MSTORE PUSH1 0x20 ADD DUP3 DUP1 SLOAD PUSH2 0x2A4 SWAP1 PUSH2 0x6FC JUMP JUMPDEST DUP1 ISZERO PUSH2 0x2F1 JUMPI DUP1 PUSH1 0x1F LT PUSH2 0x2C6 JUMPI PUSH2 0x100 DUP1 DUP4 SLOAD DIV MUL DUP4 MSTORE SWAP2 PUSH1 0x20 ADD SWAP2 PUSH2 0x2F1 JUMP JUMPDEST DUP3 ADD SWAP2 SWAP1 PUSH1 0x0 MSTORE PUSH1 0x20 PUSH1 0x0 KECCAK256 SWAP1 JUMPDEST DUP2 SLOAD DUP2 MSTORE SWAP1 PUSH1 0x1 ADD SWAP1 PUSH1 0x20 ADD DUP1 DUP4 GT PUSH2 0x2D4 JUMPI DUP3 SWAP1 SUB PUSH1 0x1F AND DUP3 ADD SWAP2 JUMPDEST POP POP POP POP POP DUP2 JUMP JUMPDEST PUSH2 0x302 DUP2 PUSH2 0x172 JUMP JUMPDEST PUSH2 0x30B JUMPI PUSH1 0x0 DUP1 REVERT JUMPDEST PUSH1 0x1 PUSH1 0x0 DUP3 PUSH1 0x40 MLOAD PUSH2 0x31D SWAP2 SWAP1 PUSH2 0x687 JUMP JUMPDEST SWAP1 DUP2 MSTORE PUSH1 0x20 ADD PUSH1 0x40 MLOAD DUP1 SWAP2 SUB SWAP1 KECCAK256 PUSH1 0x0 DUP3 DUP3 SLOAD PUSH2 0x33A SWAP2 SWAP1 PUSH2 0x853 JUMP JUMPDEST SWAP3 POP POP DUP2 SWAP1 SSTORE POP POP JUMP JUMPDEST PUSH1 0x0 PUSH1 0x40 MLOAD SWAP1 POP SWAP1 JUMP JUMPDEST PUSH1 0x0 DUP1 REVERT JUMPDEST PUSH1 0x0 DUP1 REVERT JUMPDEST PUSH1 0x0 DUP1 REVERT JUMPDEST PUSH1 0x0 DUP1 REVERT JUMPDEST PUSH1 0x0 PUSH1 0x1F NOT PUSH1 0x1F DUP4 ADD AND SWAP1 POP SWAP2 SWAP1 POP JUMP JUMPDEST PUSH32 0x4E487B7100000000000000000000000000000000000000000000000000000000 PUSH1 0x0 MSTORE PUSH1 0x41 PUSH1 0x4 MSTORE PUSH1 0x24 PUSH1 0x0 REVERT JUMPDEST PUSH2 0x3AB DUP3 PUSH2 0x362 JUMP JUMPDEST DUP2 ADD DUP2 DUP2 LT PUSH8 0xFFFFFFFFFFFFFFFF DUP3 GT OR ISZERO PUSH2 0x3CA JUMPI PUSH2 0x3C9 PUSH2 0x373 JUMP JUMPDEST JUMPDEST DUP1 PUSH1 0x40 MSTORE POP POP POP JUMP JUMPDEST PUSH1 0x0 PUSH2 0x3DD PUSH2 0x344 JUMP JUMPDEST SWAP1 POP PUSH2 0x3E9 DUP3 DUP3 PUSH2 0x3A2 JUMP JUMPDEST SWAP2 SWAP1 POP JUMP JUMPDEST PUSH1 0x0 PUSH8 0xFFFFFFFFFFFFFFFF DUP3 GT ISZERO PUSH2 0x409 JUMPI PUSH2 0x408 PUSH2 0x373 JUMP JUMPDEST JUMPDEST PUSH2 0x412 DUP3 PUSH2 0x362 JUMP JUMPDEST SWAP1 POP PUSH1 0x20 DUP2 ADD SWAP1 POP SWAP2 SWAP1 POP JUMP JUMPDEST DUP3 DUP2 DUP4 CALLDATACOPY PUSH1 0x0 DUP4 DUP4 ADD MSTORE POP POP POP JUMP JUMPDEST PUSH1 0x0 PUSH2 0x441 PUSH2 0x43C DUP5 PUSH2 0x3EE JUMP JUMPDEST PUSH2 0x3D3 JUMP JUMPDEST SWAP1 POP DUP3 DUP2 MSTORE PUSH1 0x20 DUP2 ADD DUP5 DUP5 DUP5 ADD GT ISZERO PUSH2 0x45D JUMPI PUSH2 0x45C PUSH2 0x35D JUMP JUMPDEST JUMPDEST PUSH2 0x468 DUP5 DUP3 DUP6 PUSH2 0x41F JUMP JUMPDEST POP SWAP4 SWAP3 POP POP POP JUMP JUMPDEST PUSH1 0x0 DUP3 PUSH1 0x1F DUP4 ADD SLT PUSH2 0x485 JUMPI PUSH2 0x484 PUSH2 0x358 JUMP JUMPDEST JUMPDEST DUP2 CALLDATALOAD PUSH2 0x495 DUP5 DUP3 PUSH1 0x20 DUP7 ADD PUSH2 0x42E JUMP JUMPDEST SWAP2 POP POP SWAP3 SWAP2 POP POP JUMP JUMPDEST PUSH1 0x0 PUSH1 0x20 DUP3 DUP5 SUB SLT ISZERO PUSH2 0x4B4 JUMPI PUSH2 0x4B3 PUSH2 0x34E JUMP JUMPDEST JUMPDEST PUSH1 0x0 DUP3 ADD CALLDATALOAD PUSH8 0xFFFFFFFFFFFFFFFF DUP2 GT ISZERO PUSH2 0x4D2 JUMPI PUSH2 0x4D1 PUSH2 0x353 JUMP JUMPDEST JUMPDEST PUSH2 0x4DE DUP5 DUP3 DUP6 ADD PUSH2 0x470 JUMP JUMPDEST SWAP2 POP POP SWAP3 SWAP2 POP POP JUMP JUMPDEST PUSH1 0x0 DUP2 SWAP1 POP SWAP2 SWAP1 POP JUMP JUMPDEST PUSH2 0x4FA DUP2 PUSH2 0x4E7 JUMP JUMPDEST DUP3 MSTORE POP POP JUMP JUMPDEST PUSH1 0x0 PUSH1 0x20 DUP3 ADD SWAP1 POP PUSH2 0x515 PUSH1 0x0 DUP4 ADD DUP5 PUSH2 0x4F1 JUMP JUMPDEST SWAP3 SWAP2 POP POP JUMP JUMPDEST PUSH1 0x0 DUP2 ISZERO ISZERO SWAP1 POP SWAP2 SWAP1 POP JUMP JUMPDEST PUSH2 0x530 DUP2 PUSH2 0x51B JUMP JUMPDEST DUP3 MSTORE POP POP JUMP JUMPDEST PUSH1 0x0 PUSH1 0x20 DUP3 ADD SWAP1 POP PUSH2 0x54B PUSH1 0x0 DUP4 ADD DUP5 PUSH2 0x527 JUMP JUMPDEST SWAP3 SWAP2 POP POP JUMP JUMPDEST PUSH2 0x55A DUP2 PUSH2 0x4E7 JUMP JUMPDEST DUP2 EQ PUSH2 0x565 JUMPI PUSH1 0x0 DUP1 REVERT JUMPDEST POP JUMP JUMPDEST PUSH1 0x0 DUP2 CALLDATALOAD SWAP1 POP PUSH2 0x577 DUP2 PUSH2 0x551 JUMP JUMPDEST SWAP3 SWAP2 POP POP JUMP JUMPDEST PUSH1 0x0 PUSH1 0x20 DUP3 DUP5 SUB SLT ISZERO PUSH2 0x593 JUMPI PUSH2 0x592 PUSH2 0x34E JUMP JUMPDEST JUMPDEST PUSH1 0x0 PUSH2 0x5A1 DUP5 DUP3 DUP6 ADD PUSH2 0x568 JUMP JUMPDEST SWAP2 POP POP SWAP3 SWAP2 POP POP JUMP JUMPDEST PUSH1 0x0 DUP2 MLOAD SWAP1 POP SWAP2 SWAP1 POP JUMP JUMPDEST PUSH1 0x0 DUP3 DUP3 MSTORE PUSH1 0x20 DUP3 ADD SWAP1 POP SWAP3 SWAP2 POP POP JUMP JUMPDEST PUSH1 0x0 JUMPDEST DUP4 DUP2 LT ISZERO PUSH2 0x5E4 JUMPI DUP1 DUP3 ADD MLOAD DUP2 DUP5 ADD MSTORE PUSH1 0x20 DUP2 ADD SWAP1 POP PUSH2 0x5C9 JUMP JUMPDEST PUSH1 0x0 DUP5 DUP5 ADD MSTORE POP POP POP POP JUMP JUMPDEST PUSH1 0x0 PUSH2 0x5FB DUP3 PUSH2 0x5AA JUMP JUMPDEST PUSH2 0x605 DUP2 DUP6 PUSH2 0x5B5 JUMP JUMPDEST SWAP4 POP PUSH2 0x615 DUP2 DUP6 PUSH1 0x20 DUP7 ADD PUSH2 0x5C6 JUMP JUMPDEST PUSH2 0x61E DUP2 PUSH2 0x362 JUMP JUMPDEST DUP5 ADD SWAP2 POP POP SWAP3 SWAP2 POP POP JUMP JUMPDEST PUSH1 0x0 PUSH1 0x20 DUP3 ADD SWAP1 POP DUP2 DUP2 SUB PUSH1 0x0 DUP4 ADD MSTORE PUSH2 0x643 DUP2 DUP5 PUSH2 0x5F0 JUMP JUMPDEST SWAP1 POP SWAP3 SWAP2 POP POP JUMP JUMPDEST PUSH1 0x0 DUP2 SWAP1 POP SWAP3 SWAP2 POP POP JUMP JUMPDEST PUSH1 0x0 PUSH2 0x661 DUP3 PUSH2 0x5AA JUMP JUMPDEST PUSH2 0x66B DUP2 DUP6 PUSH2 0x64B JUMP JUMPDEST SWAP4 POP PUSH2 0x67B DUP2 DUP6 PUSH1 0x20 DUP7 ADD PUSH2 0x5C6 JUMP JUMPDEST DUP1 DUP5 ADD SWAP2 POP POP SWAP3 SWAP2 POP POP JUMP JUMPDEST PUSH1 0x0 PUSH2 0x693 DUP3 DUP5 PUSH2 0x656 JUMP JUMPDEST SWAP2 POP DUP2 SWAP1 POP SWAP3 SWAP2 POP POP JUMP JUMPDEST PUSH32 0x4E487B7100000000000000000000000000000000000000000000000000000000 PUSH1 0x0 MSTORE PUSH1 0x32 PUSH1 0x4 MSTORE PUSH1 0x24 PUSH1 0x0 REVERT JUMPDEST PUSH32 0x4E487B7100000000000000000000000000000000000000000000000000000000 PUSH1 0x0 MSTORE PUSH1 0x22 PUSH1 0x4 MSTORE PUSH1 0x24 PUSH1 0x0 REVERT JUMPDEST PUSH1 0x0 PUSH1 0x2 DUP3 DIV SWAP1 POP PUSH1 0x1 DUP3 AND DUP1 PUSH2 0x714 JUMPI PUSH1 0x7F DUP3 AND SWAP2 POP JUMPDEST PUSH1 0x20 DUP3 LT DUP2 SUB PUSH2 0x727 JUMPI PUSH2 0x726 PUSH2 0x6CD JUMP JUMPDEST JUMPDEST POP SWAP2 SWAP1 POP JUMP JUMPDEST PUSH1 0x0 DUP2 SWAP1 POP DUP2 PUSH1 0x0 MSTORE PUSH1 0x20 PUSH1 0x0 KECCAK256 SWAP1 POP SWAP2 SWAP1 POP JUMP JUMPDEST PUSH1 0x0 DUP2 SLOAD PUSH2 0x74F DUP2 PUSH2 0x6FC JUMP JUMPDEST PUSH2 0x759 DUP2 DUP7 PUSH2 0x64B JUMP JUMPDEST SWAP5 POP PUSH1 0x1 DUP3 AND PUSH1 0x0 DUP2 EQ PUSH2 0x774 JUMPI PUSH1 0x1 DUP2 EQ PUSH2 0x789 JUMPI PUSH2 0x7BC JUMP JUMPDEST PUSH1 0xFF NOT DUP4 AND DUP7 MSTORE DUP2 ISZERO ISZERO DUP3 MUL DUP7 ADD SWAP4 POP PUSH2 0x7BC JUMP JUMPDEST PUSH2 0x792 DUP6 PUSH2 0x72D JUMP JUMPDEST PUSH1 0x0 JUMPDEST DUP4 DUP2 LT ISZERO PUSH2 0x7B4 JUMPI DUP2 SLOAD DUP2 DUP10 ADD MSTORE PUSH1 0x1 DUP3 ADD SWAP2 POP PUSH1 0x20 DUP2 ADD SWAP1 POP PUSH2 0x795 JUMP JUMPDEST DUP4 DUP9 ADD SWAP6 POP POP POP JUMPDEST POP POP POP SWAP3 SWAP2 POP POP JUMP JUMPDEST PUSH1 0x0 PUSH2 0x7D1 DUP3 DUP5 PUSH2 0x742 JUMP JUMPDEST SWAP2 POP DUP2 SWAP1 POP SWAP3 SWAP2 POP POP JUMP JUMPDEST PUSH32 0x4E487B7100000000000000000000000000000000000000000000000000000000 PUSH1 0x0 MSTORE PUSH1 0x11 PUSH1 0x4 MSTORE PUSH1 0x24 PUSH1 0x0 REVERT JUMPDEST PUSH1 0x0 PUSH2 0x816 DUP3 PUSH2 0x4E7 JUMP JUMPDEST SWAP2 POP PUSH32 0xFFFFFFFFFFFFFFFFFFFFFFFFFFFFFFFFFFFFFFFFFFFFFFFFFFFFFFFFFFFFFFFF DUP3 SUB PUSH2 0x848 JUMPI PUSH2 0x847 PUSH2 0x7DC JUMP JUMPDEST JUMPDEST PUSH1 0x1 DUP3 ADD SWAP1 POP SWAP2 SWAP1 POP JUMP JUMPDEST PUSH1 0x0 PUSH2 0x85E DUP3 PUSH2 0x4E7 JUMP JUMPDEST SWAP2 POP PUSH2 0x869 DUP4 PUSH2 0x4E7 JUMP JUMPDEST SWAP3 POP DUP3 DUP3 ADD SWAP1 POP DUP1 DUP3 GT ISZERO PUSH2 0x881 JUMPI PUSH2 0x880 PUSH2 0x7DC JUMP JUMPDEST JUMPDEST SWAP3 SWAP2 POP POP JUMP INVALID LOG2 PUSH5 0x6970667358 0x22 SLT KECCAK256 PUSH29 0x7CDFA76AB766A2CB3D85AE95A8D5E3DC4E99226F0DA0EFB1A8F9337A3 SWAP4 PUSH19 0x64736F6C634300081000330000000000000000 "
				},
				"gasEstimates": {
					"creation": {
						"codeDepositCost": "447400",
						"executionCost": "infinite",
						"totalCost": "infinite"
					},
					"external": {
						"candidateList(uint256)": "infinite",
						"totalVotesFor(string)": "infinite",
						"validCandidate(string)": "infinite",
						"voteForCandidate(string)": "infinite",
						"votesReceived(string)": "infinite"
					}
				},
				"methodIdentifiers": {
					"candidateList(uint256)": "b13c744b",
					"totalVotesFor(string)": "4a3bf377",
					"validCandidate(string)": "538c91b2",
					"voteForCandidate(string)": "e89927ef",
					"votesReceived(string)": "8d4b44d9"
				}
			},
			"storageLayout": {
				"storage": [
					{
						"astId": 5,
						"contract": "contracts/src/Voting.sol:Voting",
						"label": "votesReceived",
						"offset": 0,
						"slot": "0",
						"type": "t_mapping(t_string_memory_ptr,t_uint256)"
					},
					{
						"astId": 8,
						"contract": "contracts/src/Voting.sol:Voting",
						"label": "candidateList",
						"offset": 0,
						"slot": "1",
						"type": "t_array(t_string_storage)dyn_storage"
					}
				],
				"types": {
					"t_array(t_string_storage)dyn_storage": {
						"base": "t_string_storage",
						"encoding": "dynamic_array",
						"label": "string[]",
						"numberOfBytes": "32"
					},
					"t_mapping(t_string_memory_ptr,t_uint256)": {
						"encoding": "mapping",
						"key": "t_string_memory_ptr",
						"label": "mapping(string => uint256)",
						"numberOfBytes": "32",
						"value": "t_uint256"
					},
					"t_string_memory_ptr": {
						"encoding": "bytes",
						"label": "string",
						"numberOfBytes": "32"
					},
					"t_string_storage": {
						"encoding": "bytes",
						"label": "string",
						"numberOfBytes": "32"
					},
					"t_uint256": {
						"encoding": "inplace",
						"label": "uint256",
						"numberOfBytes": "32"
					}
				}
			},
			"userdoc": {
				"kind": "user",
				"methods": {},
				"version": 1
			}
		}
	}
}